:020000040800F2
:1080000070040020C1810008178200080F82000858
:10801000138200080982000819830008000000008C
:108020000000000000000000000000004382000883
:108030000D8200080000000041820008458200080F
:10804000DB810008DB810008DB810008DB810008A0
:10805000DB810008DB810008DB810008DB81000890
:10806000DB810008DB810008DB810008DB81000880
:10807000DB810008DB810008DB810008DB81000870
:10808000DB810008DB810008DB810008DB81000860
:10809000DB810008DB810008DB810008DB81000850
:1080A000DB810008DB810008DB810008DB81000840
:1080B000DB810008DB810008DB810008DB81000830
:1080C000DB810008DB810008DB810008DB81000820
:1080D000DB810008DB810008DB810008DB81000810
:1080E000DB810008DB810008DB810008DB81000800
:1080F000DB810008DB810008DB810008DB810008F0
:10810000DB810008DB810008DB810008DB810008DF
:10811000DB810008DB810008DB810008DB810008CF
:10812000DB810008DB810008DB810008DB810008BF
:10813000DB810008DB810008DB810008DB810008AF
:10814000DB810008DB810008DB810008DB8100089F
:10815000DB810008DB810008DB810008DB8100088F
:10816000DB810008DB810008DB810008DB8100087F
:10817000DB810008DB810008DB81000800000000D3
:10818000DB810008DB810008DB810008DB8100085F
:10819000DB810008DB810008DB81000800000000B3
:1081A000DB810008DB810008DB810008DFF80CD0F0
:1081B00000F018F800480047A5840008700400206B
:1081C0000648804706480047FEE7FEE7FEE7FEE771
:1081D000FEE7FEE7FEE7FEE7FEE7FEE75182000866
:1081E000AD810008064C074D06E0E06840F0010351
:1081F00094E8070098471034AC42F6D3FFF7DAFF53
:10820000408600086086000800BFFEE7704700BF98
:10821000FEE700BFFEE7704710B5002807DA0A073F
:10822000140E054A00F00F031B1FD45403E00A0785
:10823000130E024A135410BD18ED00E000E400E0F4
:108240007047704710B500F00FF900F077F810BDD7
:1082500008B52D48006840F470002B4908602B4891
:10826000006840F00100294908602848083000688B
:1082700040F080002549083108600020009002E0AD
:108280000098401C00904CF2503100988842F7D37F
:108290001E480830006840F090001C490831086012
:1082A0000020009002E00098401C00904CF25031F9
:1082B00000988842F7D315480830006820F0030082
:1082C00012490831086011480068114908400F49F7
:1082D00008600846006820F48020086000200B49F0
:1082E0000831086000BF09480830006800200028F5
:1082F000F9D108480549091D0860002003490C31DF
:10830000086000F071F908BD88ED00E00038024017
:10831000FFFFF6FE1030002400BFFEE702E008C8B1
:10832000121F08C1002AFAD170477047002001E0EF
:1083300001C1121F002AFBD17047000004480068E9
:1083400020B103480068401E0149086070470000E2
:108350000400002010B50446104931F8140000F064
:10836000B9F80F4951F824300E4951F82400002281
:10837000012100F031F80A4951F82430094951F837
:1083800024000222002100F04EF8054850F8240095
:10839000044951F82410886210BD0000300000200C
:1083A000180000200C000020034951F82010034A57
:1083B00052F8202091627047180000200C00002025
:1083C000034951F82010034A52F820209161704768
:1083D000180000200C000020F0B504460D4616469B
:1083E0002168E268002019E0012787401F4213D06E
:1083F0004FEA400C032707FA0CF7B943470005FA88
:1084000007F739434FEA400C032707FA0CF7BA4342
:10841000470006FA07F73A43471CB8B21028E3D3DF
:108420002160E260F0BDF0B50C461546012C03D189
:1084300046681E43466002E046689E434660826886
:1084400000210DE001268E401E4207D04F0003267A
:10845000BE40B2434E0005FA06F632434E1CB1B29E
:108460001029EFD38260F0BD10B50D48006888B1C7
:108470000B480068B0F5FA7F03D20020FFF7A0FF99
:1084800002E00020FFF790FF05480068401E044905
:10849000086003E04FF47A700149086010BD0000E5
:1084A000000000204FF40041080300F007F800200E
:1084B000FFF750FF00F09CF800BFFEE7034A0A40B8
:1084C0000243034B1A60BFF34F8F704780FFFF1FBB
:1084D00008ED00E0064901EB9011096800F01F0368
:1084E00001229A401143024A02EB90121160704738
:1084F0000038024000200021384A126842F48032DD
:10850000364B1A6000BF401C344A126802F4003136
:1085100019B9A0F57F42FF3AF5D1304A126812F43A
:10852000003F01D100BFFEE72C4A4032126842F002
:1085300080522A4B40331A60294A126842F4404262
:10854000274B1A60254A08321268244B08331A60F8
:108550001A46126842F400421A601A46126842F43F
:10856000A0521A601F4A1B1F1A601A1F126842F09D
:1085700080721B1F1A6000BF184A126812F0007F39
:10858000FAD0174A126842F48032154B1A6000BFC5
:10859000134A526812F4803FFAD0114A126842F42A
:1085A00000320F4B1A6000BF0D4A526812F4003FB0
:1085B000FAD00A4A0832126822F00302074B083345
:1085C0001A601A46126842F002021A6000BF034A9B
:1085D0000832126812F0080FF9D0704700380240D4
:1085E000007000401964400910B5FFF783FF10BD0B
:1085F00010B5124800684FF47A71B0FBF1F4601EB8
:10860000B0F1807F01D301200FE0601E4FF0E02128
:1086100048610F214FF0FF30FFF7FEFD00204FF0C3
:10862000E021886107200861002008B100BFFEE753
:108630000021481EFFF7F0FD10BD000008000020DB
:108640006086000800000020700000001C83000805
:10865000D086000870000020000400002C83000871
:10866000000000000000000000C2EB0B0010024000
:108670000010024000140240040000000800000046
:1086800000040000041100000002000000040000CB
:10869000040C040C050C000000000240000802401D
:1086A0000004024001000000002000000040000023
:1086B000000C020C010C0000010000000020000072
:1086C00000400000000201000D0E062828000000F6
:04000005080081ADC1
:00000001FF
