:020000040800F2
:10800000C0E70020C1810008118200080D8200082D
:108010000F82000809820008C582000800000000E5
:10802000000000000000000000000000378200088F
:108030000B82000800000000358200083982000829
:10804000DB810008DB810008DB810008DB810008A0
:10805000DB810008DB810008DB810008DB81000890
:10806000DB810008DB810008DB810008DB81000880
:10807000DB810008DB810008DB810008DB81000870
:10808000DB810008DB810008DB810008DB81000860
:10809000DB810008DB810008DB810008DB81000850
:1080A000DB810008DB810008DB810008DB81000840
:1080B000DB810008DB810008DB810008DB81000830
:1080C000DB810008DB810008DB810008DB81000820
:1080D000DB810008DB810008DB810008DB81000810
:1080E000DB810008DB810008DB810008DB81000800
:1080F000DB810008DB810008DB810008DB810008F0
:10810000DB810008DB810008DB810008DB810008DF
:10811000DB810008DB810008DB810008DB810008CF
:10812000DB810008DB810008DB810008DB810008BF
:10813000DB810008DB810008DB810008DB810008AF
:10814000DB810008DB810008DB810008DB8100089F
:10815000DB810008DB810008DB810008DB8100088F
:10816000DB810008DB810008DB810008DB8100087F
:10817000DB810008DB810008DB81000800000000D3
:10818000DB810008DB810008DB810008DB8100085F
:10819000DB810008DB810008DB81000800000000B3
:1081A000DB810008DB810008DB810008DFF80CD0F0
:1081B00000F018F80048004711860008C0E70020CA
:1081C0000648804706480047FEE7FEE7FEE7FEE771
:1081D000FEE7FEE7FEE7FEE7FEE7FEE73D8200087A
:1081E000AD810008064C074D06E0E06840F0010351
:1081F00094E8070098471034AC42F6D3FFF7DAFF53
:1082000070360C0890360C08FEE77047FEE7FEE774
:10821000704700000907090E002803DA00F00F007C
:10822000024A00E0024A81547047000014ED00E069
:1082300000E400E07047704700F05CB81D4818B4D7
:10824000016841F4700101601B49086840F00100B9
:10825000086019480830026842F08002026000227B
:108260004CF250330092009C641C00949C42FAD360
:10827000046844F0900404600092009C641C009424
:108280009C42FAD3036823F0030303600B680B4C92
:1082900023400B600B6823F480230B6002600068AE
:1082A00005490748091D086003480C30026018BCE6
:1082B00000F080BB88ED00E000380240FFFFF6FED2
:1082C00010300024FEE702E008C8121F08C1002A8F
:1082D000FAD170477047002001E001C1121F002A47
:1082E000FBD170470249086008680028FCD170473C
:1082F0000000002003480168002902D00168491EDF
:108300000160704700000020F0B5036A446A002550
:1083100001260F2706FA05FC1CEA020F09D04FEAD6
:10832000850C07FA0CFE23EA0E0301FA0CFE4EEA56
:1083300003036D1CADB2082DECD3082506FA05FC2D
:108340001CEA020F0BD04FEA850CACF1200C07FAA7
:108350000CFE24EA0E0401FA0CFE4EEA04046D1C25
:10836000ADB2102DEAD303624462F0BD8161704763
:108370002DE9F047894601689246C268002401272A
:108380004FF0030C07FA04F51D420BD066000CFAFF
:1083900006F5A943AA4309FA06F80AFA06F548EAD7
:1083A00001012A43641CA4B2102CEBD30160C2600B
:1083B000BDE8F087F0B50129416819D099434160C3
:1083C0008168002401274FF0030C00BF07FA04F670
:1083D0001E4207D066000CFA06F521EA050502FAEE
:1083E00006F12943641CA4B2102CEFD38160F0BDC8
:1083F0001943E4E770B5064692B040F6174000F026
:1084000083FA00F023F8002000F0EEF800240225A3
:1084100005940694CDE903540B48CDE90004762079
:1084200008900294F7200790684600F01BF8CDE909
:108430000C450B94CDE9096410940F9409A80E948F
:1084400000F088F812B070BD0800002010B540F2AE
:108450001744204600F074FA2046BDE8104000F0B2
:1084600061BA000070B53A4900240A68D20704D006
:108470000A68012422F001020A604A6B22F0070216
:108480004A63C2684A63C2680025052A1CD2DFE835
:1084900002F0030F374250008A6B8D63D0E905323A
:1084A00042EA0322038A067A1B0443EA066309E0D0
:1084B0008A6B02F07F428A634269038A120242EAAF
:1084C000034226E01A438A63CA6BCD630268CA631B
:1084D0000A6C6FF30D020A6442680A644A6C02F087
:1084E00040424A644A6C036A808B1A4342EA004065
:1084F0004864012C03D1086840F00100086070BD99
:108500008A6B6FF30F028A6342690369520142EA80
:10851000C3228369D6E78A6B6FF30F028A63D0E9BF
:10852000053242EA4312036986689B0243EAC63376
:10853000C8E78A6B6FF30F028A63D0E9053242EA1B
:108540000312036986681B0243EA0633BAE7000098
:1085500000B002401D4910B50B680022DB0704D0B3
:108560000B68012223F001030B60CB680023CB6072
:108570000368CB600B696FF30D030B6143680B61FC
:10858000CB69134C2340CB61CB69047A43EA046383
:10859000CB61CB69C4682343CB61CB6904692343B6
:1085A000CB610B6A03F07F430B620B6AC469234300
:1085B000848A8069240444EA002003430B62012A70
:1085C00003D1086840F00100086010BD00B002400F
:1085D000F0FFFC0003494968014201D001207047C7
:1085E0000020704700B0024004490A6822F440327B
:1085F0000A600A6802430A607047000000B0024047
:108600000248016841F001010160704700B002407A
:108610004FF40041080300F0CFF800F021FA00F019
:1086200033FB00F0B3FA574800F088FC554880301F
:1086300000F084FC002000F0CFFC00F01DFB00F0F7
:108640002FFA012000F0C8FC4F48FFF7D3FEFFF7D8
:10865000D7FF0220FFF7BEFF0028FAD03220FFF735
:1086600041FE4A48FFF7C6FEFFF7CAFF0220FFF7A8
:10867000B1FF0028FAD03220FFF734FE4448FFF75C
:10868000B9FEFFF7BDFF0220FFF7A4FF0028FAD0D4
:108690003220FFF727FE3F48FFF7ACFEFFF7B0FFA1
:1086A0000220FFF797FF0028FAD03220FFF71AFECA
:1086B0003948FFF79FFEFFF7A3FF0220FFF78AFF6D
:1086C0000028FAD03220FFF70DFE3448FFF792FE63
:1086D000FFF796FF0220FFF77DFF0028FAD0322037
:1086E000FFF700FE2E48FFF785FEFFF789FF022007
:1086F000FFF770FF0028FAD03220FFF7F3FD29487A
:10870000FFF778FEFFF77CFF0220FFF763FF0028EA
:10871000FAD03220FFF7E6FD2348FFF76BFEFFF7A4
:108720006FFF0220FFF756FF0028FAD03220FFF734
:10873000D9FD1E48FFF75EFEFFF762FF0220FFF73C
:1087400049FF0028FAD03220FFF7CCFD1848FFF788
:1087500051FEFFF755FF0220FFF73CFF0028FAD03B
:108760003220FFF7BFFD1348FFF744FEFFF748FF35
:108770000220FFF72FFF0028FAD03220FFF7B2FDCA
:1087800062E7000000680140008A0108B46D020839
:10879000685103081C350408D018050884FC050836
:1087A00038E00608ECC30708A0A70808548B09089E
:1087B000086F0A08BC520B08034A114001430348E2
:1087C0000160BFF34F8F704780FFFF1F08ED00E08F
:1087D000064901EB9011096800F01F02012090404A
:1087E000014201D00120704700207047003802404C
:1087F000054901EB90110A6800F01F030120984021
:1088000002430A60704700000038024070B5002340
:108810003C4C1D461C2867D007DC98B3102815D0A7
:1088200018284FD01A286BD155E0B0F5E05F1AD068
:10883000B0F5E85F43D0A0F54050103860D132E089
:108840001120FFF7C5FF5B1C18B104E04FF6FF7461
:10885000F6E7A342F4D111204EE03046FFF7B8FF0F
:108860005B1C28B106E06FF0704441F60146F4E766
:10887000A342F2D130463FE00120FFF7A9FF5B1C85
:1088800020B105E0FFE74FF4A064F5E7A342F3D180
:10889000012031E03046FFF79BFF5B1C0028E9D147
:1088A000A342F7D1E6E743F21106F3E73046FFF7BC
:1088B0008FFF5B1C0028DDD1A342F7D1DAE741F638
:1088C0000156F3E71920FFF783FF5B1C08B9A342A9
:1088D000F8D1192010E01B20FFF77AFF5B1C08B9C4
:1088E000A342F8D11B2007E01D20FFF771FF5B1C9E
:1088F00008B9A342F8D11D20FFF76AFF00B1012596
:10890000284670BDFFFF0F00054901EB90110A6872
:1089100000F01F030120984002430A6070470000E6
:1089200000380240054901EB90110A6800F01F036E
:108930000120984082430A607047000000380240DE
:10894000054901EB90110A6800F01F0301209840CF
:1089500002430A607047000000380240A0F1320371
:10896000B3F5E17F16D8022905D0042903D00629E2
:1089700001D008290ED1931E052B0BD8064B4908B0
:1089800003EB014141EA8010044940EA02700860AB
:1089900001207047002070470000FFFF8838024028
:1089A000034A116821F4403101431160704700000F
:1089B0008C380240274910B50A68002042F4803202
:1089C0000A604FF6FF730A68401C12F4003F01D1A1
:1089D0009842F8D10868800300D4FEE71D48403073
:1089E000026842F0805202601B48026842F4404232
:1089F0000260184A083213681360136843F4004396
:108A00001360136843F4A0531360141F134B2360C7
:108A10000B6843F080730B600B689B01FCD5016809
:108A200041F4803101604168C903FCD5016841F41B
:108A30000031016041688903FCD5106820F0030013
:108A40001060106840F00200106010680007FCD54C
:108A500010BD000000380240007000401964400959
:108A600070B50E484FF47A710068B0FBF1F0401E0B
:108A7000B0F1807F11D24FF0E024606165170F21C3
:108A80002846FFF7C7FB0020A06107202061284689
:108A9000BDE870400021FFF7BDBBFEE704000020E9
:108AA00030B597B041F21A10FFF72EFF00F0ECF846
:108AB00003220221C020FFF751FF002860D04FF4AD
:108AC0000030FFF76DFF1C20FFF792FE1C20FFF720
:108AD0009DFEE0B300240A942820ADF8020009208E
:108AE000ADF800000B942A20ADF806000B20ADF87D
:108AF000040040F20A2003900C9440F21B100290F4
:108B00004FF403700590FF25099440F21D10049066
:108B1000069507950895684600F0CCF97B20ADF8DE
:108B2000360040F27110ADF834002020ADF83A0064
:108B30009520ADF8380002200F904FF4C0601290DD
:108B40008DF84050072013908DF8414000E018E068
:108B50000C488DF8434014908DF8424040F2F110DB
:108B6000ADF85600C01EADF854008DF84440762094
:108B7000ADF858000DA9044800F0E6F917B030BD73
:108B8000FEE7FEE7080000208068014030B597B09E
:108B900041F21A10FFF7B8FE00F076F80322022126
:108BA000C020FFF7DBFE002860D04FF40030FFF755
:108BB000F7FE1C20FFF71CFE1C20FFF727FEE8B382
:108BC00000250A952820ADF802000920ADF8000024
:108BD0000B952A20ADF806000B20ADF8040040F2FA
:108BE0000A2003900C9540F21B1002904FF4037082
:108BF0000590FF24099540F21D10049006940794F7
:108C00000894684600F056F97B20ADF836004FF422
:108C1000DD70ADF83400A220ADF83A00A01D8DF84B
:108C20004040ADF838008DF8434002208DF84240B6
:108C30000F908DF844408DF8415000E017E04FF45C
:108C4000C0601290072013900948149040F28320CE
:108C5000ADF85600C01EADF854006420ADF85800C1
:108C60000DA9044800F070F917B030BDFEE7FEE72B
:108C700000900008006801400248016841F00101CD
:108C800001607047186801402DE9F05F40F601402F
:108C9000FFF73AFE40F60440FFF736FE40F6074085
:108CA000FFF732FE40F60840FFF72EFE40F6064082
:108CB000FFF72AFE40F60540FFF726FEDFF8DC91BD
:108CC00020220E214846FFF71FFB40220E21484676
:108CD000FFF71AFB10220E214846FFF715FBDFF8BD
:108CE000C0A104220E215046FFF70EFB08220E21E0
:108CF0005046FFF709FB4FF480720E215046FFF7F4
:108D000003FB4FF4007632460E215046FFF7FCFA83
:108D100075002A460E215046FFF7F6FA6F003A46D4
:108D20000E215046FFF7F0FA4FF4805842460E21CC
:108D30005046FFF7E9FAEA000E215046FFF7E4FA41
:108D40002A010E215046FFF7DFFA6C0122460E2160
:108D50005046FFF7D9FADFF84CB101220E215846F0
:108D6000FFF7D2FA02220E215846FFF7CDFA04226D
:108D70000E215846FFF7C8FA10220E215846FFF779
:108D8000C3FA20220E215846FFF7BEFA40220E21D8
:108D90005846FFF7B9FA80220E215846FFF7B4FA79
:108DA00032460E215846FFF7AFFA2A460E215846A2
:108DB000FFF7AAFA40220E213B48FFF7A5FA8022CE
:108DC0000E213948FFF7A0FA2A460E213648FFF750
:108DD0009BFA3A460E213448FFF796FA42460E2196
:108DE0003148FFF791FA314E2A460E213046FFF7FF
:108DF0008BFA7023002202214846FFF7B9FA70234C
:108E0000032200214846FFF7D5FA4FF60C773B4680
:108E1000002202215046FFF7ABFA3B460322002115
:108E20005046FFF7C7FA40F2F7673B46002202219F
:108E30005846FFF79DFA3B46032200215846FFF7AC
:108E4000B9FA4FF4E6573B46002202211648FFF7D5
:108E50008FFA3B46032200211348FFF7ABFA2B465B
:108E6000002202213046FFF783FA2B46032200211D
:108E70003046FFF79FFA0E4D012223461146284641
:108E8000FFF776FA2346022200212846FFF792FADE
:108E900021462846BDE8F05FFFF768BA001002409F
:108EA000001C024000200240001802400014024052
:108EB0000004024020490A6802F0F0220A600268B9
:108EC0000A60091D0A6802F0F0220A6042680A601E
:108ED000091D0A6802F0F0220A608389826842EA6A
:108EE00003420A60091D0A6802F0F0220A60838AC0
:108EF000026942EA03420A600F4924310A6802F01B
:108F00007F420A60C269038B120242EA0342036A8B
:108F10001A430A60084910310A6822F070420A6058
:108F2000D0E909231A43D0E90B30034308681A43F8
:108F300002430A60704700000868014050F8841F2F
:108F400041F001010160704710B550F8882F02F020
:108F5000F02202600A684FEA32420260426802F080
:108F6000F02242604A684FEA32424260C26822F010
:108F70000702C2608A68C260026922F0FF020261D1
:108F80000A7B0261426900224261B1F80F308C7B9A
:108F90005BBA64F31F434C7B43EA04634361836918
:108FA00040F20774A3438361D1E9054323438361FE
:108FB000436A4262CA694262826A02F0C0228262E5
:108FC0000A6A4FEA32428262C26A6FF30A02C262DE
:108FD000898CC16210BD000005490028086803D0D3
:108FE00040F001000860704740F00200FAE700001E
:108FF00024680140000000000000000000000000A4
:10900000FFFFFFFFFFFFFFFFFFFFFFFFFFFFFFFF70
:10901000FFFFFFFFFFFFFFFFFFFFFFFFFFFFFFFF60
:10902000FFFFFFFFFFFFFFFFFFFFFFFFFFFFFFFF50
:10903000FFFFFFFFFFFFFFFFFFFFFFFFFFFFFFFF40
:10F6B000FFFFFFFFFFFFFFFFFFFFFFFFBFDFBEE713
:10F6C000BEDFBEDFBFDFBEE7BEDFBEDFBFDFBEE740
:10F6D000BEDFBEDFBFDFBEE7BEDFBEDFBFDFBEE730
:10F6E000BEDFBEDFBFDFBEE7BEDFBEDFBFDFBEE720
:10F6F000BEDFBEDFBFDFBEE7BEDFBEDFBFDFBEE710
:10F70000BEDFBEDFBFDFBEE7BEDFBEDFBFDFBEE7FF
:10F71000BEDFBEDFBFDFBEE7FFFFFFFFFFFFFFFF74
:10F72000FFFFFFFFFFFFFFFFFFFFFFFFFFFFFFFFE9
:10F73000FFFFFFFFFFFFFFFFFFFFFFFFFFFFFFFFD9
:10F74000FFFFFFFFFFFFFFFFFFFFFFFFFFFFFFFFC9
:10F75000FFFFFFFFFFFFFFFFFFFFFFFFFFFFFFFFB9
:10F76000FFFFFFFFFFFFFFFFFFFFFFFFFFFFFFFFA9
:10F77000FFFFFFFFFFFFFFFFFFFFFFFFFFFFFFFF99
:10F78000FFFFFFFFFFFFFFFFFFFFFFFFFFFFFFFF89
:10F79000FFFFFFFFFFFFFFFFFFFFFFFFFFFFFFFF79
:10F7A000FFFFFFFFFFFFFFFFFFFFFFFFFFFFFFFF69
:10F7B000FFFFFFFFFFFFFFFFFFFFFFFFFFFFFFFF59
:10F7C000FFFFFFFFFFFFFFFFFFFFFFFFFFFFFFFF49
:10F7D000FFFFFFFFFFFFFFFFFFFFFFFFFFFFFFFF39
:10F7E000FFFFFFFFFFFFFFFFFFFFFFFFFFFFFFFF29
:10F7F000FFFFFFFFFFFFFFFFFFFFFFFFFFFFFFFF19
:10F80000FFFFFFFFFFFFFFFFFFFFFFFFFFFFFFFF08
:10F81000FFFFFFFFFFFFFFFFFFFFFFFFFFFFFFFFF8
:10F82000FFFFFFFFFFFFFFFFFFFFFFFFFFFFFFFFE8
:10F83000FFFFFFFFFFFFFFFFFFFFFFFFFFFFFFFFD8
:10F84000FFFFFFFFFFFFFFFFFFFFFFFFFFFFFFFFC8
:10F85000FFFFFFFFFFFFFFFFFFFFFFFFFFFFFFFFB8
:10F86000FFFFFFFFFFFFFFFFFFFFFFFFFFFFFFFFA8
:10F87000FFFFFFFFFFFFFFFFFFFFFFFFFFFFFFFF98
:10F88000FFFFFFFFFFFFFFFFFFFF7DEF7EE7BEF7FC
:10F890007DE7FFFFFFFFFFFFFFFFFFFFFFFFFFFF12
:10F8A000FFFFFFFFFFFFFFFFFFFFFFFFFFFFFFFF68
:10F8B000FFFFFFFFFFFFFFFFFFFFFFFFFFFFFFFF58
:10F8C000FFFFFFFFFFFFFFFFFFFFFFFFFFFFFFFF48
:10F8D000FFFFFFFFFFFFFFFFFFFFFFFFFFFFFFFF38
:10F8E000FFFFFFFFFFFFFFFFFFFFFFFFFFFFFFFF28
:10F8F000FFFFFFFFFFFFFFFFFFFFFFFFFFFFFFFF18
:10F90000FFFFFFFFFFFFFFFFFFFFFFFFFFFFFFFF07
:10F91000FFFFFFFFFFFFFFFFFFFFFFFFFFFFFFFFF7
:10F92000FFFFFFFFFFFFFFFFFFFFFFFFFFFFFFFFE7
:10F93000FFFFFFFFFFFFFFFFFFFFBEE7751CB614D1
:10F940007514B614751CB6147514B614751CB6145B
:10F950007514B614751CB6147514B614751CB6144B
:10F960007514B614751CB6147514B614751CB6143B
:10F970007514B614751CB6147514B614751CB6142B
:10F980007514B614751CB6147514B614751CB6141B
:10F990007514B614751CB6147EDFFFFFFFFFFFFF62
:10F9A000FFFFFFFFFFFFFFFFFFFFFFFFFFFFFFFF67
:10F9B000FFFFFFFFFFFFFFFFFFFFFFFFFFFFFFFF57
:10F9C000FFFFFFFFFFFFFFFFFFFFFFFFFFFFFFFF47
:10F9D000FFFFFFFFFFFFFFFFFFFFFFFFFFFFFFFF37
:10F9E000FFFFFFFFFFFFFFFFFFFFFFFFFFFFFFFF27
:10F9F000FFFFFFFFFFFFFFFFFFFFFFFFFFFFFFFF17
:10FA0000FFFFFFFFFFFFFFFFFFFFFFFFFFFFFFFF06
:10FA1000FFFFFFFFFFFFFFFFFFFFFFFFFFFFFFFFF6
:10FA2000FFFFFFFFFFFFFFFFFFFFFFFFFFFFFFFFE6
:10FA3000FFFFFFFFFFFFFFFFFFFFFFFFFFFFFFFFD6
:10FA4000FFFFFFFFFFFFFFFFFFFFFFFFFFFFFFFFC6
:10FA5000FFFFFFFFFFFFFFFFFFFFFFFFFFFFFFFFB6
:10FA6000FFFFFFFFFFFFFFFFFFFFFFFFFFFFFFFFA6
:10FA7000FFFFFFFFFFFFFFFFFFFF30844DA34D6B34
:10FA80000D6BBFCE796EBA6EF96CB36EFFD7FFFF08
:10FA9000FFFFFFFFFFFFFFFFFFFFFFFFFFFFFFFF76
:10FAA000FFFFFFFFFFFFFFFFFFFFFFFFFFFFFFFF66
:10FAB000FFFFFFFFFFFFFFFFFFFFFFFFFFFFFFFF56
:10FAC000FFFFFFFFFFFFFFFFFFFFFFFFFFFFFFFF46
:10FAD000FFFFFFFFFFFFFFFFFFFFFFFFFFFFFFFF36
:10FAE000FFFFFFFFFFFFFFFFFFFFFFFFFFFFFFFF26
:10FAF000FFFFFFFFFFFFFFFFFFFFFFFFFFFFFFFF16
:10FB0000FFFFFFFFFFFF3DDF3AC63ABE3AC6BBC666
:10FB1000BBD6FFFFFFFFFFFFFFFFFFFFFFFFFFFF62
:10FB2000FFFFFFFFFFFFFFFFFFFFFFFFFFFFFFFFE5
:10FB3000FFFFFFFFFFFFFFFFFFFFFFFFFFFFFFFFD5
:10FB4000FFFFFFFFFFFFFFFFFFFFFFFFFFFFFFFFC5
:10FB5000FFFFFFFFFFFFFFFFFFFFFFFFFFFFFFFFB5
:10FB6000FFFFFFFFFFFFFFFFFFFFFFFFFFFFFFFFA5
:10FB7000FFFFFFFFFFFFFFFFFFFFFFFFFFFFFFFF95
:10FB8000FFFFFFFFFFFFFFFFFFFFFFFFFFFFFFFF85
:10FB9000FFFFFFFFFFFFFFFFFFFFFFFFFFFFFFFF75
:10FBA000FFFFFFFFFFFFFFFFFFFFFFFFFFFFFFFF65
:10FBB000FFFFFFFFFFFFFFFFFFFFBEE7B614751457
:10FBC000B6147514B6147514B6147514B6147514E9
:10FBD000B6147514B6147514B6147514B6147514D9
:10FBE000B6147514B6147514B6147514B6147514C9
:10FBF000B6147514B6147514B6147514B6147514B9
:10FC0000B6147514B6147514B6147514B6147514A8
:10FC1000B6147514B6147514BFDFFFFFFFFFFFFFA6
:10FC2000FFFFFFFFFFFFFFFFFFFFFFFFFFFFFFFFE4
:10FC3000FFFFFFFFFFFFFFFFFFFFFFFFFFFFFFFFD4
:10FC4000FFFFFFFFFFFFFFFFFFFFFFFFFFFFFFFFC4
:10FC5000FFFFFFFFFFFFFFFFFFFFFFFFFFFFFFFFB4
:10FC6000FFFFFFFFFFFFFFFFFFFFFFFFFFFFFFFFA4
:10FC7000FFFFFFFFFFFFFFFFFFFFFFFFFFFFFFFF94
:10FC8000FFFFFFFFFFFFFFFFFFFFFFFFFFFFFFFF84
:10FC9000FFFFFFFFFFFFFFFFFFFFFFFFFFFFFFFF74
:10FCA000FFFFFFFFFFFFFFFFFFFFFFFFFFFFFFFF64
:10FCB000FFFFFFFFFFFFFFFFFFFFFFFFFFFFFFFF54
:10FCC000FFFFFFFFFFFFFFFFFFFFFFFFFFFFFFFF44
:10FCD000FFFFFFFFFFFFFFFFFFFFFFFFFFFFFFFF34
:10FCE000FFFFFFFFFFFFFFFFFFFFFFFFFFFFFFFF24
:10FCF000FFFFFFFFFFFFFFFFFFFF8639C731863998
:10FD0000C73138C63335F304F404F304BACEFFFF29
:10FD1000FFFFFFFFFFFFFFFFFFFFFFFFFFFFFFFFF3
:10FD2000FFFFFFFFFFFFFFFFFFFFFFFFFFFFFFFFE3
:10FD3000FFFFFFFFFFFFFFFFFFFFFFFFFFFFFFFFD3
:10FD4000FFFFFFFFFFFFFFFFFFFFFFFFFFFFFFFFC3
:10FD5000FFFFFFFFFFFFFFFFFFFFFFFFFFFFFFFFB3
:10FD6000FFFFFFFFFFFFFFFFFFFFFFFFFFFFFFFFA3
:10FD7000FFFFFFFFFFFFFFFFFFFFFFFFFFFFFFFF93
:10FD8000FFFFBFFF39B6F8AD39B639BE7BBEBACE7C
:10FD9000BCCEFCDEBEEFFFFFFFFFFFFFFFFFFFFF5C
:10FDA000FFFFFFFFFFFFFFFFFFFFFFFFFFFFFFFF63
:10FDB000FFFFFFFFFFFFFFFFFFFFFFFFFFFFFFFF53
:10FDC000FFFFFFFFFFFFFFFFFFFFFFFFFFFFFFFF43
:10FDD000FFFFFFFFFFFFFFFFFFFFFFFFFFFFFFFF33
:10FDE000FFFFFFFFFFFFFFFFFFFFFFFFFFFFFFFF23
:10FDF000FFFFFFFFFFFFFFFFFFFFFFFFFFFFFFFF13
:10FE0000FFFFFFFFFFFFFFFFFFFFFFFFFFFFFFFF02
:10FE1000FFFFFFFFFFFFFFFFFFFFFFFFFFFFFFFFF2
:10FE2000FFFFFFFFFFFFFFFFFFFFFFFFFFFFFFFFE2
:10FE3000FFFFFFFFFFFFFFFFFFFFBEE77514B614D4
:10FE4000751CB514751CB614751CB5147514B61450
:10FE5000751CB514751CB614751CB5147514B61440
:10FE6000751CB514751CB614751CB5147514B61430
:10FE7000751CB514751CB614751CB5147514B61420
:10FE8000751CB514751CB614751CB5147514B61410
:10FE9000751CB514751CB6147EE7FFFFFFFFFFFF4E
:10FEA000FFFFFFFFFFFFFFFFFFFFFFFFFFFFFFFF62
:10FEB000FFFFFFFFFFFFFFFFFFFFFFFFFFFFFFFF52
:10FEC000FFFFFFFFFFFFFFFFFFFFFFFFFFFFFFFF42
:10FED000FFFFFFFFFFFFFFFFFFFFFFFFFFFFFFFF32
:10FEE000FFFFFFFFFFFFFFFFFFFFFFFFFFFFFFFF22
:10FEF000FFFFFFFFFFFFFFFFFFFFFFFFFFFFFFFF12
:10FF0000FFFFFFFFFFFFFFFFFFFFFFFFFFFFFFFF01
:10FF1000FFFFFFFFFFFFFFFFFFFFFFFFFFFFFFFFF1
:10FF2000FFFFFFFFFFFFFFFFFFFFFFFFFFFFFFFFE1
:10FF3000FFFFFFFFFFFFFFFFFFFFFFFFFFFFFFFFD1
:10FF4000FFFFFFFFFFFFFFFFFFFFFFFFFFFFFFFFC1
:10FF5000FFFFFFFFFFFFFFFFFFFFFFFFFFFFFFFFB1
:10FF6000FFFFFFFFFFFFFFFFFFFFFFFFFFFFFFFFA1
:10FF7000FFFFFFFFFFFFFFFFFFFFC6318639C731DD
:10FF80008639BAD6F304F304F304F304FFD7FFFF72
:10FF9000FFFFFFFFFFFFFFFFFFFFFFFFFFFFFFFF71
:10FFA000FFFFFFFFFFFFFFFFFFFFFFFFFFFFFFFF61
:10FFB000FFFFFFFFFFFFFFFFFFFFFFFFFFFFFFFF51
:10FFC000FFFFFFFFFFFFFFFFFFFFFFFFFFFFFFFF41
:10FFD000FFFFFFFFFFFFFFFFFFFFFFFFFFFFFFFF31
:10FFE000FFFFFFFFFFFFFFFFFFFFFFFFFFFFFFFF21
:10FFF000FFFFFFFFFFFFFFFFFFFFFFFFFFFFFFFF11
:020000040801F1
:100000003DE7B8AD78ADF9ADF9B53ABE3AC6BBC675
:10001000BBD6FCD6FCDE7EEFFFFFFFFFFFFFFFFF3E
:10002000FFFFFFFFFFFFFFFFFFFFFFFFFFFFFFFFE0
:10003000FFFFFFFFFFFFFFFFFFFFFFFFFFFFFFFFD0
:10004000FFFFFFFFFFFFFFFFFFFFFFFFFFFFFFFFC0
:10005000FFFFFFFFFFFFFFFFFFFFFFFFFFFFFFFFB0
:10006000FFFFFFFFFFFFFFFFFFFFFFFFFFFFFFFFA0
:10007000FFFFFFFFFFFFFFFFFFFFFFFFFFFFFFFF90
:10008000FFFFFFFFFFFFFFFFFFFFFFFFFFFFFFFF80
:10009000FFFFFFFFFFFFFFFFFFFFFFFFFFFFFFFF70
:1000A000FFFFFFFFFFFFFFFFFFFFFFFFFFFFFFFF60
:1000B000FFFFFFFFFFFFFFFFFFFFBEE7B614751452
:1000C000B614B514B6147514B614B514B614751464
:1000D000B614B514B6147514B614B514B614751454
:1000E000B614B514B6147514B614B514B614751444
:1000F000B614B514B6147514B614B514B614751434
:10010000B614B514B6147514B614F62C383DF73C75
:10011000B614B514B6147514BEDFFFFFFFFFFFFF62
:10012000FFFFFFFFFFFFFFFFFFFFFFFFFFFFFFFFDF
:10013000FFFFFFFFFFFFFFFFFFFFFFFFFFFFFFFFCF
:10014000FFFFFFFFFFFFFFFFFFFFFFFFFFFFFFFFBF
:10015000FFFFFFFFFFFFFFFFFFFFFFFFFFFFFFFFAF
:10016000FFFFFFFFFFFFFFFFFFFFFFFFFFFFFFFF9F
:10017000FFFFFFFFFFFFFFFFFFFFFFFFFFFFFFFF8F
:10018000FFFFFFFFFFFFFFFFFFFFFFFFFFFFFFFF7F
:10019000FFFFFFFFFFFFFFFFFFFFFFFFFFFFFFFF6F
:1001A000FFFFFFFFFFFFFFFFFFFFFFFFFFFFFFFF5F
:1001B000FFFFFFFFFFFFFFFFFFFFFFFFFFFFFFFF4F
:1001C000FFFFFFFFFFFFFFFFFFFFFFFFFFFFFFFF3F
:1001D000FFFFFFFFFFFFFFFFFFFFFFFFFFFFFFFF2F
:1001E000FFFFFFFFFFFFFFFFFFFFFFFFFFFFFFFF1F
:1001F000FFFFFFFFFFFFFFFFFFFF8631C73186399B
:10020000C73138C6F404F3043305F304BACEFFFF54
:10021000FFFFFFFFFFFFFFFFFFFFFFFFFFFFFFFFEE
:10022000FFFFFFFFFFFFFFFFFFFFFFFFFFFFFFFFDE
:10023000FFFFFFFFFFFFFFFFFFFFFFFFFFFFFFFFCE
:10024000FFFFFFFFFFFFFFFFFFFFFFFFFFFFFFFFBE
:10025000FFFFFFFFFFFFFFFFFFFFFFFFFFFFFFFFAE
:10026000FFFFFFFFFFFFFFFFFFFFFFFFFFFFFFFF9E
:10027000FFFFFFFFFFFFFFFFFFFFFFFFFFFFFFFF8E
:10028000359577A5B8A5F8AD39B639BE7BBEBBCEDE
:10029000FCCEFBD63DDF3DE7BEE7FFFFFFFFFFFFE4
:1002A000FFFFFFFFFFFFFFFFFFFFFFFFFFFFFFFF5E
:1002B000FFFFFFFFFFFFFFFFFFFFFFFFFFFFFFFF4E
:1002C000FFFFFFFFFFFFFFFFFFFFFFFFFFFFFFFF3E
:1002D000FFFFFFFFFFFFFFFFFFFFFFFFFFFFFFFF2E
:1002E000FFFFFFFFFFFFFFFFFFFFFFFFFFFFFFFF1E
:1002F000FFFFFFFFFFFFFFFFFFFFFFFFFFFFFFFF0E
:10030000FFFFFFFFFFFFFFFFFFFFFFFFFFFFFFFFFD
:10031000FFFFFFFFFFFFFFFFFFFFFFFFFFFFFFFFED
:10032000FFFFFFFFFFFFFFFFFFFFFFFFFFFFFFFFDD
:10033000FFFFFFFFFFFFFFFFFFFFBEE7751CB614C7
:100340007514B614751CB6147514B614751CB61451
:100350007514B614751CB6147514B614751CB61441
:100360007514B614751CB6147514B614751CB61431
:100370007514B614751CB6147514B614751CB51422
:10038000B865BCA6F97DB6143A86BCA63A8E7B8EBB
:10039000FDC6F624751CB6147EDFFFFFFFFFFFFFCE
:1003A000FFFFFFFFFFFFFFFFFFFFFFFFFFFFFFFF5D
:1003B000FFFFFFFFFFFFFFFFFFFFFFFFFFFFFFFF4D
:1003C000FFFFFFFFFFFFFFFFFFFFFFFFFFFFFFFF3D
:1003D000FFFFFFFFFFFFFFFFFFFFFFFFFFFFFFFF2D
:1003E000FFFFFFFFFFFFFFFFFFFFFFFFFFFFFFFF1D
:1003F000FFFFFFFFFFFFFFFFFFFFFFFFFFFFFFFF0D
:10040000FFFFFFFFFFFFFFFFFFFFFFFFFFFFFFFFFC
:10041000FFFFFFFFFFFFFFFFFFFFFFFFFFFFFFFFEC
:10042000FFFFFFFFFFFFFFFFFFFFFFFFFFFFFFFFDC
:10043000FFFFFFFFFFFFFFFFFFFFFFFFFFFFFFFFCC
:10044000FFFFFFFFFFFFFFFFFFFFFFFFFFFFFFFFBC
:10045000FFFFFFFFFFFFFFFFFFFFFFFFFFFFFFFFAC
:10046000FFFFFFFFFFFFFFFFFFFFFFFFFFFFFFFF9C
:10047000FFFFFFFFFFFFFFFFFFFFF39CF3A43084AC
:10048000F39CBACE79A6BA9E796EBA9EFFD7FFFFCB
:10049000FFFFFFFFFFFFFFFFFFFFFFFFFFFFFFFF6C
:1004A000FFFFFFFFFFFFFFFFFFFFFFFFFFFFFFFF5C
:1004B000FFFFFFFFFFFFFFFFFFFFFFFFFFFFFFFF4C
:1004C000FFFFFFFFFFFFFFFFFFFFFFFFFFFFFFFF3C
:1004D000FFFFFFFFFFFFFFFFFFFFFFFFFFFFFFFF2C
:1004E000FFFFFFFFFFFFFFFFFFFFFFFFFFFFFFFF1C
:1004F000FFFFFFFFFFFFFFFFFFFFFFFFFFFFFFFF0C
:10050000F49C779DB8ADF9ADF9B53ABE7AC6BBC6D5
:10051000BBD6FCD6FCE63DE77EEF7EEF7DEF7EEFBF
:10052000FFFFFFFFFFFFFFFFFFFFFFFFFFFFFFFFDB
:10053000FFFFFFFFFFFFFFFFFFFFFFFFFFFFFFFFCB
:10054000FFFFFFFFFFFFFFFFFFFFFFFFFFFFFFFFBB
:10055000FFFFFFFFFFFFFFFFFFFFFFFFFFFFFFFFAB
:10056000FFFFFFFFFFFFFFFFFFFFFFFFFFFFFFFF9B
:10057000FFFFFFFFFFFFFFFFFFFFFFFFFFFFFFFF8B
:10058000FFFFFFFFFFFFFFFFFFFFFFFFFFFFFFFF7B
:10059000FFFFFFFFFFFFFFFFFFFFFFFFFFFFFFFF6B
:1005A000FFFFFFFFFFFFFFFFFFFFFFFFFFFFFFFF5B
:1005B000FFFFFFFFFFFFFFFFFFFFBEE7B61475144D
:1005C000B6147514B614B514B6147514B61475149F
:1005D000B6147514B614B514B6147514B61475148F
:1005E000B6147514B614B514B6147514B61475147F
:1005F000B6147514B614B514B6147514B614B51C27
:10060000B95DBBA6B95D774DBC9E7514B614751463
:10061000B855B865B614B514BFDFFFFFFFFFFFFF85
:10062000FFFFFFFFFFFFFFFFFFFFFFFFFFFFFFFFDA
:10063000FFFFFFFFFFFFFFFFFFFFFFFFFFFFFFFFCA
:10064000FFFFFFFFFFFFFFFFFFFFFFFFFFFFFFFFBA
:10065000FFFFFFFFFFFFFFFFFFFFFFFFFFFFFFFFAA
:10066000FFFFFFFFFFFFFFFFFFFFFFFFFFFFFFFF9A
:10067000FFFFFFFFFFFFFFFFFFFFFFFFFFFFFFFF8A
:10068000FFFFFFFFFFFFFFFFFFFFFFFFFFFFFFFF7A
:10069000FFFFFFFFFFFFFFFFFFFFFFFFFFFF796E81
:1006A000BA6E796EB466BFFEFFFFFFFFFFFFFFFF6C
:1006B000FFFFFFFF38C64C6B4D9B4D6B339DFFFF1B
:1006C000FFFFFFFFFFFFFFFFFFFFFFFFBA66796E2F
:1006D000BA6E796EFFFFFFFFFFFFFFFFFFFFFFFF17
:1006E000FFFFF39C4D6330844D6B38C6FFFFFFFF67
:1006F000FFFFFFFFFFFFFFFFFFFFF96C3A65796E19
:10070000FA6CFFD73084308430844D6BBACEFFFF53
:10071000FFFFFFFFFFFFFFFFFFFFFFFFFFFFFFFFE9
:10072000FFFFFFFFFFFFFFFFFFFFFFFFFFFFFFFFD9
:10073000FFFFFFFFFFFFFFFFFFFFFFFFFFFFFFFFC9
:10074000FFFFFFFFFFFFFFFFFFFFFFFFFFFFFFFFB9
:10075000FFFFFFFFFFFFFFFFFFFFFFFFFFFFFFFFA9
:10076000FFFFFFFFFFFFFFFFFFFFFFFFFFFFFFFF99
:10077000FFFFFFFFFFFFFFFFFFFFFFFFFFFFFFFF89
:10078000FBDE718CF38CB294CF6BB38C359535A5B1
:10079000BCCEFCD63DDF3DE77EE77EEF7EE73DE762
:1007A0007EE7FFFFFFFFFFFFFFFFFFFFFFFFFFFFF2
:1007B000FFFFFFFFFFFFFFFFFFFFFFFFFFFFFFFF49
:1007C000FFFFFFFFFFFFFFFFFFFFFFFFFFFFFFFF39
:1007D000FFFFFFFFFFFFFFFFFFFFFFFFFFFFFFFF29
:1007E000FFFFFFFFFFFFFFFFFFFFFFFFFFFFFFFF19
:1007F000FFFFFFFFFFFFFFFFFFFFFFFFFFFFFFFF09
:10080000FFFFFFFFFFFFFFFFFFFFFFFFFFFFFFFFF8
:10081000FFFFFFFFFFFFFFFFFFFFFFFFFFFFFFFFE8
:10082000FFFFFFFFFFFFFFFFFFFFFFFFFFFFFFFFD8
:10083000FFFFFFFFFFFFFFFFFFFFBEE7751CB614C2
:10084000751CB5147514B614751CB514751CB61446
:10085000751CB5147514B614751CB514751CB61436
:10086000751CB5147514B614751CB514751CB61426
:10087000751CB5147514B614751CB514751CB61416
:10088000F97578553A8EB624FCBEFCAEFCB6FCAECB
:100890003DC7B9657514B6147EE7FFFFFFFFFFFF84
:1008A000FFFFFFFFFFFFFFFFFFFFFFFFFFFFFFFF58
:1008B000FFFFFFFFFFFFFFFFFFFFFFFFFFFFFFFF48
:1008C000FFFFFFFFFFFFFFFFFFFFFFFFFFFFFFFF38
:1008D000FFFFFFFFFFFFFFFFFFFFFFFFFFFFFFFF28
:1008E000FFFFFFFFFFFFFFFFFFFFFFFFFFFFFFFF18
:1008F000FFFFBAD638C638C638C638C67AD6FFFF24
:10090000FFFFFFFFFFFFFFFFFFFFFFFFFFFFFFFFF7
:10091000FFFFFFFFFFFFFFFFFFFFFFFFFFFFF304EE
:10092000F304F304F304FFCFFFFFFFFFFFFFFFFF1C
:10093000FFFFFFFF3084C7318639C6310D6BFFFFE3
:10094000FFFFFFFFFFFFFFFFFFFFFFD7F304F304ED
:10095000F304F3047FFEFFFFFFFFFFFFFFFFFFFF36
:10096000FFFF30848639C73106384D6BFFFFFFFF2C
:10097000FFFFFFFFFFFFFFFFFFFFF334F304F3046C
:10098000F304BFD68639C7318639C6317AD6FFFF20
:10099000FFFFFFFFFFFFFFFFFFFFFFFFFFFFFFFF67
:1009A000FFFFFFFFFFFFFFFFFFFFFFFFFFFFFFFF57
:1009B000FFFFFFFFFFFFFFFFFFFFFFFFFFFFFFFF47
:1009C000FFFFFFFFFFFFFFFFFFFFFFFFFFFFFFFF37
:1009D000FFFFFFFFFFFFFFFFFFFFFFFFFFFFFFFF27
:1009E000FFFFFFFFFFFFFFFFFFFFFFFFFFFFFFFF17
:1009F000FFFFFFFFFFFFFFFFFFFFFFFFFFFFFFFF07
:100A0000FFFFFFFFFFFFFFFFFFFF3CDFFBE675ADD2
:100A100039C6FCD6FCDE3DE77EEFBEEF7EEF7DE71C
:100A20003DE77EEFFFFFFFFFFFFFFFFFFFFFFFFF41
:100A3000FFFFFFFFFFFFFFFFFFFFFFFFFFFFFFFFC6
:100A4000FFFFFFFFFFFFFFFFFFFFFFFFFFFFFFFFB6
:100A5000FFFFFFFFFFFFFFFFFFFFFFFFFFFFFFFFA6
:100A6000FFFFFFFFFFFFFFFFFFFFFFFFFFFFFFFF96
:100A7000FFFFFFFFFFFFFFFFFFFFFFFFFFFFFFFF86
:100A8000FFFFFFFFFFFFFFFFFFFFFFFFFFFFFFFF76
:100A9000FFFFFFFFFFFFFFFFFFFFFFFFFFFFFFFF66
:100AA000FFFFFFFFFFFFFFFFFFFFFFFFFFFFFFFF56
:100AB000FFFFFFFFFFFFFFFFFFFFBEE7B614751448
:100AC000B614B514B6147514B614B514B61475145A
:100AD000B614B514B6147514B614B514B61475144A
:100AE000B614B514B6147514B614B514B61475143A
:100AF000B614B514B6147514B614B514B61475142A
:100B0000B61C774DF6247514372DB514B61C751424
:100B1000F624F62CB6147514BEDFFFFFFFFFFFFFAF
:100B2000FFFFFFFFFFFFFFFFFFFFFFFFFFFFFFFFD5
:100B3000FFFFFFFFFFFFFFFFFFFFFFFFFFFFFFFFC5
:100B4000FFFFFFFFFFFFFFFFFFFFFFFFFFFFFFFFB5
:100B5000FFFFFFFFFFFFFFFFFFFFFFFFFFFFFFFFA5
:100B6000FFFFFFFFFFFFFFFFFFFFFFFFF49C4D6B49
:100B7000C73186310030863900308631C731863939
:100B80004D63FFFFFFFFFFFFFFFFFFFFFFFFFFFFC3
:100B9000FFFFFFFFFFFFFFFFFFFFFFFFFAFFF30471
:100BA0003305F3043405FFD7FFFFFFFFFFFFFFFF0F
:100BB000FFFFFFFF30848639C73186314D6BFFFF61
:100BC000FFFFFFFFFFFFFFFFFFFFFFFFF404F30442
:100BD0003305F304FACFFFFFFFFFFFFFFFFFFFFF27
:100BE000FFFF3084C7318639C7313084FFFFFFFFF4
:100BF000FFFFFFFFFFFFFFFFFFFFF304F404F30419
:100C00003305B9D6C7318639C731863138C6FFFFBB
:100C1000FFFFFFFFFFFFFFFFFFFFFFFFFFFFFFFFE4
:100C2000FFFFFFFFFFFFFFFFFFFFFFFFFFFFFFFFD4
:100C3000FFFFFFFFFFFFFFFFFFFFFFFFFFFFFFFFC4
:100C4000FFFFFFFFFFFFFFFFFFFFFFFFFFFFFFFFB4
:100C5000FFFFFFFFFFFFFFFFFFFFFFFFFFFFFFFFA4
:100C6000FFFFFFFFFFFFFFFFFFFFFFFFFFFFFFFF94
:100C7000FFFFFFFFFFFFFFFFFFFFFFFFFFFFFFFF84
:100C8000FFFFFFFFFFFFFFFFFFFFFFFFFFFFBEF7BD
:100C900038B6FBD63DDF3DE77EE77EEF7EE73DE7FA
:100CA0007DDF3CDFBEEFFFFFFFFFFFFFFFFFFFFF2A
:100CB000FFFFFFFFFFFFFFFFFFFFFFFFFFFFFFFF44
:100CC000FFFFFFFFFFFFFFFFFFFFFFFFFFFFFFFF34
:100CD000FFFFFFFFFFFFFFFFFFFFFFFFFFFFFFFF24
:100CE000FFFFFFFFFFFFFFFFFFFFFFFFFFFFFFFF14
:100CF000FFFFFFFFFFFFFFFFFFFFFFFFFFFFFFFF04
:100D0000FFFFFFFFFFFFFFFFFFFFFFFFFFFFFFFFF3
:100D1000FFFFFFFFFFFFFFFFFFFFFFFFFFFFFFFFE3
:100D2000FFFFFFFFFFFFFFFFFFFFFFFFFFFFFFFFD3
:100D3000FFFFFFFFFFFFFFFFFFFFBEE7751CB614BD
:100D40007514B614751CB6147514B614751CB61447
:100D50007514B614751CB6147514B614751CB61437
:100D60007514B614751CB6147514B614751CB61427
:100D70007514B614751CB6147514B614751CB61417
:100D80007514B614751CB6147B9EB6147B9EB614EF
:100D9000784DB965751CB6147EDFFFFFFFFFFFFFBE
:100DA000FFFFFFFFFFFFFFFFFFFFFFFFFFFFFFFF53
:100DB000FFFFFFFFFFFFFFFFFFFFFFFFFFFFFFFF43
:100DC000FFFFFFFFFFFFFFFFFFFFFFFFFFFFFFFF33
:100DD000FFFFFFFFFFFFFFFFFFFFFFFFFFFFFFFF23
:100DE000FFFFFFFFFFFFFFFF38C687698639C73166
:100DF000863987318639C731863987318639C73197
:100E00000D6BFFFFFFFFFFFFFFFFFFFFFFFFFFFF78
:100E1000FFFFFFFFFFFFFFFFFFFFFFFF7FD6F30492
:100E2000F304F3043004BAD6FFFFFFFFFFFFFFFF18
:100E3000FFFFFFFF3084C731863987313084FFFFE1
:100E4000FFFFFFFFFFFFFFFF79D6FFCFF304300462
:100E5000F304F3047FD6FFFFFFFFFFFFFFFFFFFF59
:100E6000FFFF30848639C73186394D6BFFFFFFFFA6
:100E7000FFFFFFFFFFFFFFFFFFFFF3343004F3042A
:100E8000F304BFCE8639C7318639873179D6FFFF63
:100E9000FFFFFFFFFFFFFFFFFFFFFFFFFFFFFFFF62
:100EA000FFFFFFFFFFFFFFFFFFFFFFFFFFFFFFFF52
:100EB000FFFFFFFFFFFFFFFFFFFFFFFFFFFFFFFF42
:100EC000FFFFFFFFFFFFFFFFFFFFFFFFFFFFFFFF32
:100ED000FFFFFFFFFFFFFFFFFFFFFFFFFFFFFFFF22
:100EE000FFFFFFFFFFFFFFFFFFFFFFFFFFFFFFFF12
:100EF000FFFFFFFFFFFFFFFFFFFFFFFFFFFFFFFF02
:100F0000FFFFFFFFFFFFFFFFFFFFFFFFFFFF7DE78B
:100F1000F8BDFCD6FCE63DE77EEF7EEF7DEF7DE79A
:100F20003DE73DDFFCDEBEEFFFFFFFFFFFFFFFFF02
:100F3000FFFFFFFFFFFFFFFFFFFFFFFFFFFFFFFFC1
:100F4000FFFFFFFFFFFFFFFFFFFFFFFFFFFFFFFFB1
:100F5000FFFFFFFFFFFFFFFFFFFFFFFFFFFFFFFFA1
:100F6000FFFFFFFFFFFFFFFFFFFFFFFFFFFFFFFF91
:100F7000FFFFFFFFFFFFFFFFFFFFFFFFFFFFFFFF81
:100F8000FFFFFFFFFFFFFFFFFFFFFFFFFFFFFFFF71
:100F9000FFFFFFFFFFFFFFFFFFFFFFFFFFFFFFFF61
:100FA000FFFFFFFFFFFFFFFFFFFFFFFFFFFFFFFF51
:100FB000FFFFFFFFFFFFFFFFFFFFBEE7B614751443
:100FC000B6147514B6147514B6147514B6147514D5
:100FD000B6147514B6147514B6147514B6147514C5
:100FE000B6147514B6147514B6147514B6147514B5
:100FF000B6147514B6147514B6147514B6147514A5
:10100000B6147514B6147514FCA6374DFDAE774DA5
:10101000FA75B965B6147514BFDFFFFFFFFFFFFF58
:10102000FFFFFFFFFFFFFFFFFFFFFFFFFFFFFFFFD0
:10103000FFFFFFFFFFFFFFFFFFFFFFFFFFFFFFFFC0
:10104000FFFFFFFFFFFFFFFFFFFFFFFFFFFFFFFFB0
:10105000FFFFFFFFFFFFFFFFFFFFFFFFFFFFFFFFA0
:10106000FFFFFFFFFFFFF39CC7318639C731863989
:10107000C7318639C7318639C7318639C731863994
:101080003084FFFFFFFFFFFFFFFFFFFFFFFFFFFFBA
:10109000FFFFFFFFFFFFFFFFFFFFFFFFFFFF736E7D
:1010A000FA6C796EBA66FFFFFFFFFFFFFFFFFFFFDD
:1010B000FFFFFFFF38C64C6B30844C9B349DFFFF15
:1010C000BFCE796E3335F304BA6EFFFF3A65796EA1
:1010D000FA6C736EFFFFFFFFFFFFFFFFFFFFFFFFD5
:1010E000FFFF38C64D6330844D9BF39CFFFFFFFF2D
:1010F000FFFFFFFFFFFFFFFFFFFFF99CBA66739E34
:10110000FA6CF9FF339D3084F49C3084BACEFFFF33
:10111000FFFFFFFFFFFFFFFFFFFFFFFFFFFFFFFFDF
:10112000FFFFFFFFFFFFFFFFFFFFFFFFFFFFFFFFCF
:10113000FFFFFFFFFFFFFFFFFFFFFFFFFFFFFFFFBF
:10114000FFFFFFFFFFFFFFFFFFFFFFFFFFFFFFFFAF
:10115000FFFFFFFFFFFFFFFFFFFFFFFFFFFFFFFF9F
:10116000FFFFFFFFFFFFFFFFFFFFFFFFFFFFFFFF8F
:10117000FFFFFFFFFFFFFFFFFFFFFFFFFFFFFFFF7F
:10118000FFFFFFFFFFFFFFFFFFFFFFFFFFFFFEFF70
:10119000359DFCDE3DDF3DE77EE77EEF7EE73DE708
:1011A0003DE73CE73CDFFCDE7DE7FFFFFFFFFFFFA5
:1011B000FFFFFFFFFFFFFFFFFFFFFFFFFFFFFFFF3F
:1011C000FFFFFFFFFFFFFFFFFFFFFFFFFFFFFFFF2F
:1011D000FFFFFFFFFFFFFFFFFFFFFFFFFFFFFFFF1F
:1011E000FFFFFFFFFFFFFFFFFFFFFFFFFFFFFFFF0F
:1011F000FFFFFFFFFFFFFFFFFFFFFFFFFFFFFFFFFF
:10120000FFFFFFFFFFFFFFFFFFFFFFFFFFFFFFFFEE
:10121000FFFFFFFFFFFFFFFFFFFFFFFFFFFFFFFFDE
:10122000FFFFFFFFFFFFFFFFFFFFFFFFFFFFFFFFCE
:10123000FFFFFFFFFFFFFFFFFFFFBEE77514B614C0
:10124000751CB514751CB614751CB5147514B6143C
:10125000751CB514751CB614751CB5147514B6142C
:10126000751CB514751CB614751CB5147514B6141C
:10127000751CB514751CB614751CB5147514B6140C
:10128000751CB514751CB614B96D3A7EFA7D3A7E9C
:101290003A863735751CB6147EE7FFFFFFFFFFFF68
:1012A000FFFFFFFFFFFFFFFFFFFFFFFFFFFFFFFF4E
:1012B000FFFFFFFFFFFFFFFFFFFFFFFFFFFFFFFF3E
:1012C000FFFFFFFFFFFFFFFFFFFFFFFFFFFFFFFF2E
:1012D000FFFFFFFFFFFFFFFFFFFFFFFFFFFFFFFF1E
:1012E000FFFFFFFFF3A4C7318639C6318639C73106
:1012F0008639C6310D6B308430844D6B8639C731E9
:1013000038CEFFFFFFFFFFFFFFFFFFFFFFFFFFFFE5
:10131000FFFFFFFFFFFFFFFFFFFFFFFFFFFFFFFFDD
:10132000FFFFFFFFFFFFFFFFFFFFFFFFFFFFFFFFCD
:10133000FFFFFFFFFFFFFFFFFFFFFFFFFFFFBACE33
:10134000F30CF304F304F304796EFFFFFFFFFFFFD8
:10135000FFFFFFFFFFFFFFFFFFFFFFFFFFFFFFFF9D
:10136000FFFFFFFFFFFFFFFFFFFFFFFFFFFFFFFF8D
:10137000FFFFFFFFFFFFFFFFFFFFFFFFFFFFFFFF7D
:10138000FFFFFFFFFFFFFFFFFFFFFFFFFFFFFFFF6D
:10139000FFFFFFFFFFFFFFFFFFFFFFFFFFFFFFFF5D
:1013A000FFFFFFFFFFFFFFFFFFFFFFFFFFFFFFFF4D
:1013B000FFFFFFFFFFFFFFFFFFFFFFFFFFFFFFFF3D
:1013C000FFFFFFFFFFFFFFFFFFFFFFFFFFFFFFFF2D
:1013D000FFFFFFFFFFFFFFFFFFFFFFFFFFFFFFFF1D
:1013E000FFFFFFFFFFFFFFFFFFFFFFFFFFFFFFFF0D
:1013F000FFFFFFFFFFFFFFFFFFFFFFFFFFFFFFFFFD
:10140000FFFFFFFFFFFFFFF73AC63ABE7BCE7DE747
:1014100035A5FCD6FCE63DE77DEFBEEF7EEF7DE730
:101420003DE73DDFFCDEFCDEFCDEFCD6FCDE7EEFD5
:10143000BEFFFFFFFFFFFFFFFFFFFFFFFFFFFFFFFD
:10144000FFFFFFFFFFFFFFFFFFFFFFFFFFFFFFFFAC
:10145000FFFFFFFFFFFFFFFFFFFFFFFFFFFFFFFF9C
:10146000FFFFFFFFFFFFFFFFFFFFFFFFFFFFFFFF8C
:10147000FFFFFFFFFFFFFFFFFFFFFFFFFFFFFFFF7C
:10148000FFFFFFFFFFFFFFFFFFFFFFFFFFFFFFFF6C
:10149000FFFFFFFFFFFFFFFFFFFFFFFFFFFFFFFF5C
:1014A000FFFFFFFFFFFFFFFFFFFFFFFFFFFFFFFF4C
:1014B000FFFFFFFFFFFFFFFFFFFFBEE7B61475143E
:1014C000B614B514B6147514B614B514B614751450
:1014D000B614B514B6147514B614B514B614751440
:1014E000B614B514B6147514B614B514B614751430
:1014F000B614B514B6147514B614B514B614751420
:10150000B614B514B6147514B955FCB6B95D7B9E06
:10151000FCAE774DB6147514BEDFFFFFFFFFFFFF73
:10152000FFFFFFFFFFFFFFFFFFFFFFFFFFFFFFFFCB
:10153000FFFFFFFFFFFFFFFFFFFFFFFFFFFFFFFFBB
:10154000FFFFFFFFFFFFFFFFFFFFFFFFFFFFFFFFAB
:10155000FFFFFFFFFFFFFFFFFFFFFFFFFFFFFFFF9B
:10156000FFFF38C6C7318639C7318631C731863962
:1015700038C6BFFEFFFFFFFFFFFFFFFFFFFF79D66B
:10158000FFFFFFFFFFFFFFFFFFFFFFFFFFFFFFFF6B
:10159000FFFFFFFFFFFFFFFFFFFFFFFFFFFFFFFF5B
:1015A000FFFFFFFFFFFFFFFFFFFFFFFFFFFFFFFF4B
:1015B000FFFFFFFFFFFFFFFFFFFFFFFFFFFFFFFF3B
:1015C0003305F304F404F3043365FFFFFFFFFFFF6B
:1015D000FFFFFFFFFFFFFFFFFFFFFFFFFFFFFFFF1B
:1015E000FFFFFFFFFFFFFFFFFFFFFFFFFFFFFFFF0B
:1015F000FFFFFFFFFFFFFFFFFFFFFFFFFFFFFFFFFB
:10160000FFFFFFFFFFFFFFFFFFFFFFFFFFFFFFFFEA
:10161000FFFFFFFFFFFFFFFFFFFFFFFFFFFFFFFFDA
:10162000FFFFFFFFFFFFFFFFFFFFFFFFFFFFFFFFCA
:10163000FFFFFFFFFFFFFFFFFFFFFFFFFFFFFFFFBA
:10164000FFFFFFFFFFFFFFFFFFFFFFFFFFFFFFFFAA
:10165000FFFFFFFFFFFFFFFFFFFFFFFFFFFFFFFF9A
:10166000FFFFFFFFFFFFFFFFFFFFFFFFFFFFFFFF8A
:10167000FFFFFFFFFFFFFFFFFFFFFFFFFFFFFFFF7A
:10168000FFFFFFFFFFFF79C6F9ADD07BF9B57BCE39
:10169000FCCEFBD63DDF3DE77EE77EEF7EE73DE714
:1016A0007DDF3CDF3DDFFCDEFCD6FBD6FCCEBBCED7
:1016B000BBC639BE7BC67ACEBBC6BBCEFCD63DE729
:1016C000BEEFFFFFFFFFFFFFFFFFFFFFFFFFFFFF7B
:1016D000FFFFFFFFFFFFFFFFFFFFFFFFFFFFFFFF1A
:1016E000FFFFFFFFFFFFFFFFFFFFFFFFFFFFFFFF0A
:1016F000FFFFFFFFFFFFFFFFFFFFFFFFFFFFFFFFFA
:10170000FFFFFFFFFFFFFFFFFFFFFFFFFFFFFFFFE9
:10171000FFFFFFFFFFFFFFFFFFFFFFFFFFFFFFFFD9
:10172000FFFFFFFFFFFFFFFFFFFFFFFFFFFFFFFFC9
:10173000FFFFFFFFFFFFFFFFFFFFBEE7751CB614B3
:101740007514B614751CB6147514B614751CB6143D
:101750007514B614751CB6147514B614751CB6142D
:101760007514B614751CB6147514B614751CB6141D
:101770007514B614751CB6147514B614751CB6140D
:101780007514B614751CB614BCAEB61CFCB6373D49
:10179000B6247514751CB6147EDFFFFFFFFFFFFF34
:1017A000FFFFFFFFFFFFFFFFFFFFFFFFFFFFFFFF49
:1017B000FFFFFFFFFFFFFFFFFFFFFFFFFFFFFFFF39
:1017C000FFFFFFFFFFFFFFFFFFFFFFFFFFFFFFFF29
:1017D000FFFFFFFFFFFFFFFFFFFFFFFFFFFFFFFF19
:1017E000FFFF4D6B8639C731863987314D6BBACED5
:1017F000FFFFFFFFFFFFFFFFFFFFFFFFFFFFFFFFF9
:10180000FFFFFFFFFFFFFFFFFFFFFFFF38C6F39C57
:1018100030843084F3A438C67FFEFFFFFFFFFFFF54
:10182000FFFFFFFFFFFF38C679D6BACE79D6FFFF9C
:10183000FFFFFFFFF3A4308438C6FFFFFFD7BA9E37
:10184000F304F304F304F304793EFFCFF9D7FFCF99
:10185000FFFFFFFFFFFFFFFFFFD7BACE79A6BA6EEB
:10186000796EBA9E7FFEFFFFFFFFFFFFFFD7FFCF1E
:10187000FFD7FFCFFFD7FFCFFFFFFFFFFFFFFFFF28
:10188000FFFFFFCFFFD7FFCFFFD7FFCFFFFFFFFF48
:1018900079FEFFCFFFFFFFFFFFFFFFFFFFFFFFFF0F
:1018A000FFFFFFFFFFFFFFFFFFFFFFFFFFFFFFFF48
:1018B000FFFFFFFFFFFFFFFFFFFFFFFFFFFFFFFF38
:1018C000FFFFFFFFFFFFFFFFFFFFFFFFFFFFFFFF28
:1018D000FFFFFFFFFFFFFFFFFFFFFFFFFFFFFFFF18
:1018E000FFFFFFFFFFFFFFFFFFFFFFFFFFFFFFFF08
:1018F000FFFFFFFFFFFFFFFFFFFFFFFFFFFFFFFFF8
:10190000FFFFFFFFFFFFF394B7AD7DE77194728493
:101910007BCEFCD6FCE63DE779CE7EEF7DEF7DE722
:101920003DE73DDFFCDEFCDEFCDEFCD6BBD6BBCEFD
:10193000F8BD7ABE3AC63ABE3ABE39B6F9B5F9B57F
:10194000B8B5F9B5BCD6FFFFFFFFFFFFFFFFFFFFF4
:10195000FFFFFFFFFFFFFFFFFFFFFFFFFFFFFFFF97
:10196000FFFFFFFFFFFFFFFFFFFFFFFFFFFFFFFF87
:10197000FFFFFFFFFFFFFFFFFFFFFFFFFFFFFFFF77
:10198000FFFFFFFFFFFFFFFFFFFFFFFFFFFFFFFF67
:10199000FFFFFFFFFFFFFFFFFFFFFFFFFFFFFFFF57
:1019A000FFFFFFFFFFFFFFFFFFFFFFFFFFFFFFFF47
:1019B000FFFFFFFFFFFFFFFFFFFFBEE7B614751439
:1019C000B6147514B614B514B6147514B61475148B
:1019D000B6147514B614B514B6147514B61475147B
:1019E000B6147514B614B514B6147514B61475146B
:1019F000B6147514B614B514B6147514B61475145B
:101A0000B6147514B614B514FCAEF9753DC7F97566
:101A1000FA6DF634B614B514BFDFFFFFFFFFFFFF0A
:101A2000FFFFFFFFFFFFFFFFFFFFFFFFFFFFFFFFC6
:101A3000FFFFFFFFFFFFFFFFFFFFFFFFFFFFFFFFB6
:101A4000FFFFFFFFFFFFFFFFFFFFFFFFFFFFFFFFA6
:101A5000FFFFFFFFFFFFFFFFFFFFFFFFFFFFFFFF96
:101A6000BACE8639C7318639C731863938C6FFFFC5
:101A7000FFFFFFFFFFFFFFFFFFFFFFFFFFFFFFFF76
:101A8000FFFFFFFFFFFFFFFF38C64D6BC7318639F1
:101A9000C7318639C7318639C731F39CFFFFFFFF55
:101AA000FFFFFFFFFFFF8639C7318639C7317FFE51
:101AB00038C68639C731863930847FD63305F3047A
:101AC000F404F3043405F304F404F3043305F304D9
:101AD000FFCFFFFFFFFFB99EF434F3043305F30497
:101AE000F404F3043405B96EFFFFFFFFBA9EF3045C
:101AF000F404F3043405F304FFCFFFFFFFFFFFFFFF
:101B0000BF9EF3043405F304F404F33CFFCFFFFF5E
:101B100038C6F39CFFFFFFFFFFFFFFFFFFFFFFFF44
:101B2000FFFFFFFFFFFFFFFFFFFFFFFFFFFFFFFFC5
:101B3000FFFFFFFFFFFFFFFFFFFFFFFFFFFFFFFFB5
:101B4000FFFFFFFFFFFFFFFFFFFFFFFFFFFFFFFFA5
:101B5000FFFFFFFFFFFFFFFFFFFFFFFFFFFFFFFF95
:101B6000FFFFFFFFFFFFFFFFFFFFFFFFFFFFFFFF85
:101B7000FFFFFFFFFFFFFFFFFFFFFFFFFFFFFFFF75
:101B8000FFFFFFFFFFFFBEF7B6B5FFFFFFFFFBDE66
:101B9000728C30847AC63DE735A576AD7EE73DE7A9
:101BA0003DE73CE73DDFFCDEFCD6BBD6FCCEBBCE42
:101BB000BBC67AC67BBE3ABE3ABEF9BD39B6F8B5E9
:101BC000F9ADB8ADB8A5F8AD7EE7FFFFFFFFFFFFA9
:101BD000FFFFFFFFFFFFFFFFFFFFFFFFFFFFFFFF15
:101BE000FFFFFFFFFFFFFFFFFFFFFFFFFFFFFFFF05
:101BF000FFFFFFFFFFFFFFFFFFFFFFFFFFFFFFFFF5
:101C0000FFFFFFFFFFFFFFFFFFFFFFFFFFFFFFFFE4
:101C1000FFFFFFFFFFFFFFFFFFFFFFFFFFFFFFFFD4
:101C2000FFFFFFFFFFFFFFFFFFFFFFFFFFFFFFFFC4
:101C3000FFFFFFFFFFFFFFFFFFFFBEE7751CB614AE
:101C4000751CB5147514B614751CB514751CB61432
:101C5000751CB5147514B614751CB514751CB61422
:101C6000751CB5147514B614751CB514751CB61412
:101C7000751CB5147514B614751CB514751CB61402
:101C8000751CB5147514B614384DB85D785DB9552A
:101C9000785DF62C7514B6147EE7FFFFFFFFFFFF9B
:101CA000FFFFFFFFFFFFFFFFFFFFFFFFFFFFFFFF44
:101CB000FFFFFFFFFFFFFFFFFFFFFFFFFFFFFFFF34
:101CC000FFFFFFFFFFFFFFFFFFFFFFFFFFFFFFFF24
:101CD000FFFFFFFFFFFFFFFFFFFFFFFFFFFFFFFF14
:101CE0003084C6318639C73186393084FFFFFFFF23
:101CF000FFFFFFFFFFFFFFFFFFFFFFFFFFFFFFFFF4
:101D0000FFFFFFFFFFFFF39C8639C6318639C731DD
:101D10008639C6318639C7318639C6318D39BACE52
:101D2000FFFFFFFF7AD6C7318639C6318639F39C6B
:101D30008639C6318639C7313084BAD6F304F30404
:101D4000F304F304F304F304F304F304F304F304DB
:101D500079D6FFFFFA6CF304F304F304F304F304FD
:101D6000F304F304F304F304F33CFFD7FFFFF36C35
:101D7000F304F304F304F304796EFFFFFFFFFFFFA6
:101D8000F33CF304F304F304F304BAD6FFFFFFFFBC
:101D9000FFFFFFFFFFFFFFFFFFFFFFFFFFFFFFFF53
:101DA000FFFFFFFFFFFFFFFFFFFFFFFFFFFFFFFF43
:101DB000FFFFFFFFFFFFFFFFFFFFFFFFFFFFFFFF33
:101DC000FFFFFFFFFFFFFFFFFFFFFFFFFFFFFFFF23
:101DD000FFFFFFFFFFFFFFFFFFFFFFFFFFFFFFFF13
:101DE000FFFFFFFFFFFFFFFFFFFFFFFFFFFFFFFF03
:101DF000FFFFFFFFFFFFFFFFFFFFFFFFFFFFFFFFF3
:101E0000FFFFFFFFFFFFFFFFFFFFFFFFFFFFFFFFE2
:101E1000FFFFFFFFB294B7B5FFFF78C6D083B7B519
:101E20003DE73DDFFCDEFCDEFCDEFCD67BCE3DDFAD
:101E3000B7B5BAC63AC63ABE3ABE39B6F9BDF9B573
:101E4000B8B5F8ADB8ADB8A5B8ADFFF7FFFFFFFF67
:101E5000FFFFFFFFFFFFFFFFFFFFFFFFFFFFFFFF92
:101E6000FFFFFFFFFFFFFFFFFFFFFFFFFFFFFFFF82
:101E7000FFFFFFFFFFFFFFFFFFFFFFFFFFFFFFFF72
:101E8000FFFFFFFFFFFFFFFFFFFFFFFFFFFFFFFF62
:101E9000FFFFFFFFFFFFFFFFFFFFFFFFFFFFFFFF52
:101EA000FFFFFFFFFFFFFFFFFFFFFFFFFFFFFFFF42
:101EB000FFFFFFFFFFFFFFFFFFFFBEE7B614751434
:101EC000B614B514B6147514B614B514B614751446
:101ED000B614B514B6147514B614B514B614751436
:101EE000B614B514B6147514B614B514B614751426
:101EF000B614B514B6147514B614B514B614751416
:101F0000B614B514B6147514BB96B5143A7E751C88
:101F1000784DB865B6147514BEDFFFFFFFFFFFFFF5
:101F2000FFFFFFFFFFFFFFFFFFFFFFFFFFFFFFFFC1
:101F3000FFFFFFFFFFFFFFFFFFFFFFFFFFFFFFFFB1
:101F4000FFFFFFFFFFFFFFFFFFFFFFFFFFFFFFFFA1
:101F5000FFFFFFFFFFFFFFFFFFFFFFFFFFFFFFFF91
:101F60004D638631C7318639C731F39CFFFFFFFFD0
:101F7000FFFFFFFFFFFFFFFFFFFFFFFFFFFFFFFF71
:101F8000FFFFFFFF349D8639C7318631C73186395F
:101F9000C7310630C7318639C7318631C7314D6BFD
:101FA000FFFFFFFFFFFF8639C7318631C7314D6B19
:101FB000C7318631C73186393084BFD6F404F30483
:101FC0003305F3043405F3043305F304F404F30494
:101FD000FFCFB99E3405F3043305F304F434796E6E
:101FE0003335F3043405F3043305B99EFFFFFFD7FF
:101FF0003335F3043405F3043305BFD6FFFF799E70
:102000003305F3043405F304BA9EFFFFFFFFFFFF1F
:10201000FFFFFFFFFFFFFFFFFFFFFFFFFFFFFFFFD0
:10202000FFFFFFFFFFFFFFFFFFFFFFFFFFFFFFFFC0
:10203000FFFFFFFFFFFFFFFFFFFFFFFFFFFFFFFFB0
:10204000FFFFFFFFFFFFFFFFFFFFFFFFFFFFFFFFA0
:10205000FFFFFFFFFFFFFFFFFFFFFFFFFFFFFFFF90
:10206000FFFFFFFFFFFFFFFFFFFFFFFFFFFFFFFF80
:10207000FFFFFFFFFFFFFFFFFFFFFFFFFFFFFFFF70
:10208000FFFFFFFFFFFFFFFFFFFFFFFFFFFFFFFF60
:10209000FFFFFFFFFFFFFFFFFFFFFFFFFFFF78CE08
:1020A000B28C718CB28CB28CF39475A538BEFFFFE4
:1020B00034957AC67BC63ABE7ABE39B639B6F9B51A
:1020C000F9ADB8ADB8A5F494B89D7AC6FFFFFFFF8F
:1020D000FFFFFFFFFFFFFFFFFFFFFFFFFFFFFFFF10
:1020E000FFFFFFFFFFFFFFFFFFFFFFFFFFFFFFFF00
:1020F000FFFFFFFFFFFFFFFFFFFFFFFFFFFFFFFFF0
:10210000FFFFFFFFFFFFFFFFFFFFFFFFFFFFFFFFDF
:10211000FFFFFFFFFFFFFFFFFFFFFFFFFFFFFFFFCF
:10212000FFFFFFFFFFFFFFFFFFFFFFFFFFFFFFFFBF
:10213000FFFFFFFFFFFFFFFFFFFFBEE7751CB614A9
:102140007514B614751CB6147514B614751CB61433
:102150007514B614751CB6147514B614751CB61423
:102160007514B614751CB6147514B614751CB61413
:102170007514B614751CB6147514B614751CB61403
:102180007514B614751CB6147B9E75147B9EB6141C
:10219000384DB965751CB6147EDFFFFFFFFFFFFFEA
:1021A000FFFFFFFFFFFFFFFFFFFFFFFFFFFFFFFF3F
:1021B000FFFFFFFFFFFFFFFFFFFFFFFFFFFFFFFF2F
:1021C000FFFFFFFFFFFFFFFFFFFFFFFFFFFFFFFF1F
:1021D000FFFFFFFFFFFFFFFFFFFFFFFFFFFFFFFF0F
:1021E000863987318639C7318639BACEFFFFFFFF7E
:1021F000FFFFFFFFFFFFFFFFFFFFFFFFFFFFFFFFEF
:10220000FFFFBAFE8639C731863987318639F39C9C
:10221000FFFFFFFF38C6C731863987318639C7319E
:10222000F39CFFFFFFFFC731863987318639C731FD
:10223000863987318639C7693084FFFF79A6BA9E0F
:10224000F304F304F304F304F33CBA9E7FA6BA9EAE
:102250007AD6F304F304F304F304BA6EFFFFFFFF2E
:10226000FFFFBA6EF304F304F304F304FFFFFFFF70
:102270007A9EF304F304F304F304F334FFD7F33446
:10228000F304F304F304F334FFFFFFFFFFFFFFFF4A
:10229000FFFFFFFFFFFFFFFFFFFFFFFFFFFFFFFF4E
:1022A000FFFFFFFFFFFFFFFFFFFFFFFFFFFFFFFF3E
:1022B000FFFFFFFFFFFFFFFFFFFFFFFFFFFFFFFF2E
:1022C000FFFFFFFFFFFFFFFFFFFFFFFFFFFFFFFF1E
:1022D000FFFFFFFFFFFFFFFFFFFFFFFFFFFFFFFF0E
:1022E000FFFFFFFFFFFFFFFFFFFFFFFFFFFFFFFFFE
:1022F000FFFFFFFFFFFFFFFFFFFFFFFFFFFFFFFFEE
:10230000FFFFFFFFFFFFFFFFFFFFFFFFFFFFFFFFDD
:10231000FFFFFFFFFFFFFFFFFFFFFFFFFFFFFFFFCD
:10232000FFFFFFFFFFFFFFFFFFFFFFFFFFFFFFFFBD
:10233000718C39BE3AC63ABE3ABE39B6F9BDF9B566
:10234000B8B5B8AD78AD359D9073779D7DEFFFFF43
:10235000FFFFFFFFFFFFFFFFFFFFFFFFFFFFFFFF8D
:10236000FFFFFFFFBEF7FFFFFFFFFFFFFFFFFFFFC6
:10237000FFFFFFFFFFFFFFFFFFFFFFFFFFFFFFFF6D
:10238000FFFFFFFFFFFFFFFFFFFFFFFFFFFFFFFF5D
:10239000FFFFFFFFFFFFFFFFFFFFFFFFFFFFFFFF4D
:1023A000FFFFFFFFFFFFFFFFFFFFFFFFFFFFFFFF3D
:1023B000FFFFFFFFFFFFFFFFFFFFBEE7B61475142F
:1023C000B6147514B6147514B6147514B6147514C1
:1023D000B6147514B6147514B6147514B6147514B1
:1023E000B6147514B6147514B6147514B6147514A1
:1023F000B6147514B6147514B6147514B614751491
:10240000B6147514B61475147B96FCB63DB7FCB6BD
:10241000FDB6774DB6147514BFDFFFFFFFFFFFFF5A
:10242000FFFFFFFFFFFFFFFFFFFFFFFFFFFFFFFFBC
:10243000FFFFFFFFFFFFFFFFFFFFFFFFFFFFFFFFAC
:10244000FFFFFFFFFFFFFFFFFFFFFFFFFFFFFFFF9C
:10245000FFFFFFFFFFFFFFFFFFFFFFFFFFFFFFFF8C
:10246000C7318639C7318639C73179D6FFFFFFFFBB
:10247000FFFFFFFFFFFFFFFFFFFFFFFFFFFFFFFF6C
:10248000FFFF3084C7318639C73186393084FFFF7A
:10249000FFFFFFFFFFFFF39CC7318639C731863945
:1024A0004D6BFFFFFFFF8639C7318639C73186394B
:1024B000C731F39CBAFEFFD7FFFFFFFFFFFFFFD737
:1024C000F404F3043305F304BA6EFFFFFFFFFFFFCC
:1024D000BA6EF3043305F304F434FFFFFFFFFFFF8C
:1024E000FFFFFFFF3305F304F404F304BA9EFFFF7C
:1024F000FFFF739E3305F304F404F304BA66F30498
:10250000F404F3043305FFD7FFFFFFFFFFFFFFFFD6
:10251000FFFFFFFFFFFFFFFFFFFFFFFFFFFFFFFFCB
:10252000FFFFFFFFFFFFFFFFFFFFFFFFFFFFFFFFBB
:10253000FFFFFFFFFFFFFFFFFFFFFFFFFFFF7CE746
:10254000FBD679CE39BE79C63DE7FFFFFFFFFFFF1F
:10255000FFFFFFFFFFFFFFFFFFF7FFFFFFF7BEF7E4
:102560007DE73CE7FBD63CE7FFFFFFFFFFFFFFFFF8
:10257000FFFFFFFFFFFFFFFFFFFFFFFFFFFFFFFF6B
:10258000FFFFBEF77DE73CE7BEF7FFFFFFFFFFFF62
:10259000FFFFFFFFFFFFFFFFFFFFFFFFFFFFFFFF4B
:1025A000FFFFFFFFFFF7FEFFFFFFFFFFFFFFFFFF44
:1025B000FFFFCF7BF9B53ABE3ABE39BE39B6F8B5A2
:1025C000F9ADB8ADB8A57AC638C68F6BB8A57EEFA1
:1025D000FFFFFFFFFFFFFFFFFFFFFFFFFFFF3CDFEE
:1025E0003AB6B7A5F8A53CDFFFFFFFFFFFFFFFFFEF
:1025F000FFFFFFFFFFFFFFFFFFFFFFFFFFFFFFFFEB
:10260000FFFFFFFFFFFFFFFFFFFFFFFFFFFFFFFFDA
:10261000FFFFFFFFFFFFFFFFFFFFFFFFFFFFFFFFCA
:10262000FFFFFFFFFFFFFFFFFFFFFFFFFFFFFFFFBA
:10263000FFFFFFFFFFFFFFFFFFFFBEE77514B614AC
:10264000751CB514751CB614751CB5147514B61428
:10265000751CB514751CB614751CB5147514B61418
:10266000751CB514751CB614751CB5147514B61408
:10267000751CB514751CB614751CB5147514B614F8
:10268000751CB514751CB6147A963A863745B6147F
:10269000751CB514751CB6147EE7FFFFFFFFFFFF26
:1026A000FFFFFFFFFFFFFFFFFFFFFFFFFFFFFFFF3A
:1026B000FFFFFFFFFFFFFFFFFFFFFFFFFFFFFFFF2A
:1026C000FFFFFFFFFFFFFFFFFFFFFFFFFFFFFFFF1A
:1026D000FFFFFFFFFFFFFFFFFFFFFFFFFFFFFFFF0A
:1026E0008639C6318639C7318639BAD6FFFFFFFF32
:1026F000FFFFFFFFFFFFFFFFFFFFFFFFFFFFFFFFEA
:10270000FFFF4D6B8639C7318639C6317AD6FFFF58
:10271000FFFFFFFFFFFFBACE466BC6318639C731D8
:102720008639BAD6FFFFC7318639C6318639C731F7
:1027300038CEFFFFFFFFFFFFFFFFFFFFFFFFFFCFD1
:10274000F30CF304F304F304796EFFFFFFFFFFFFC4
:10275000F33CF304F304F304F36CFFD77A9EFFCF4A
:1027600079D6BA9EF33CF304F304F3047A6EFFFFC8
:10277000FFFFFFD7F33CF304F304F304F304F30483
:10278000F30CF3047AA6FFFFFFFFFFFFFFFFFFFF3D
:10279000FFFFFFFFFFFFFFFFFFFFFFFFFFFFFFFF49
:1027A000FFFFFFFFFFFFFFFFFFFFFFFFFFFFFFFF39
:1027B000FFFFFFFFFFFFFFFFFFFFBEF7FCE63DDF70
:1027C0003DE73DE73DE73DDFBAD639BEFCDEFFFF22
:1027D000FFFFFFFFFFFFBACE3CE73DDF3CE73DDFF9
:1027E000FCE63CDFFCDE7AC6F7BD39BE7EF7FFFFB4
:1027F000FFFFFFFFFFFFFFFFFFFFFFFFFFFFBEEF3A
:10280000FCDEFBD6BBD6BAC6F8BDF7B539C6FFF7B6
:10281000FFFFFFFFFFFFFFFFFFFFFFFFFFFFBEEF19
:10282000FCDE7AC639C6F8B5B7B5F7B539C63CDFB0
:10283000FFFFFFFF31843ABE39BE39B6F9B5F9B5AD
:10284000B8B5B8ADB8AD7ABEFFFFBAD60E63F59491
:10285000BBD6FFFFFFFFFFFFBEF7FBD676A5B38C0D
:1028600035AD75ADF4A4FFFFFFFFFFFFFFFFFFFFD6
:10287000FFFFFFFFFFFFFFFFFFFFFFFFFFFFFFFF68
:10288000FFFFFFFFFFFFFFFFFFFFFFFFFFFFFFFF58
:10289000FFFFFFFFFFFFFFFFFFFFFFFFFFFFFFFF48
:1028A000FFFFFFFFFFFFFFFFFFFFFFFFFFFFFFFF38
:1028B000FFFFFFFFFFFFFFFFFFFFBEE7B61475142A
:1028C000B614B514B6147514B614B514B61475143C
:1028D000B614B514B6147514B614B514B61475142C
:1028E000B614B514B6147514B614B514B61475141C
:1028F000B614B514B6147514B614B514B61475140C
:10290000B614B514B6147514B61437453A76BB9E92
:10291000BC9E373DB6147514BEDFFFFFFFFFFFFFFF
:10292000FFFFFFFFFFFFFFFFFFFFFFFFFFFFFFFFB7
:10293000FFFFFFFFFFFFFFFFFFFFFFFFFFFFFFFFA7
:10294000FFFFFFFFFFFFFFFFFFFFFFFFFFFFFFFF97
:10295000FFFFFFFFFFFFFFFFFFFFFFFFFFFFFFFF87
:10296000C7318631C7318639C73138C6FFFFFFFF0F
:10297000FFFFFFFFFFFFFFFFFFFFFFFFFFFFFFFF67
:10298000FFFF8631C7318639C7318631BACEFFFFA6
:10299000FFFFFFFFFFFFFFFFCD318631C7318639D3
:1029A000C731B9D6FFFF8639C7318631C73186397D
:1029B000FFFFFFFFFFFFFFFFFFFFFFFFFFFF79FEAE
:1029C0003305F304F404F3043365FFFFFFFFFFFF57
:1029D0003305F304F404F3043305F3043405F3047A
:1029E0003305F304F404F3043305F3043A35FFFF2D
:1029F000FFFFFFFFBFCEF3043305F3043405F304F8
:102A00003305B36EFFFFFFFFFFFFFFFFFFFFFFFF79
:102A1000FFFFFFFFFFFFFFFFFFFFFFFFFFFFFFFFC6
:102A2000FFFFFFFFFFFFFFFFFFFFFFFFFFFFFFFFB6
:102A3000FFFFFFFFFFFFFFFFBEEF7DEFBEEF3CDFBD
:102A400038B6F394F49439C6BEE77DEFFCD6FBDECE
:102A5000FFFFFFFFFFFF79CEBEE77DEFBEEF7DEF0B
:102A60007DDFFCDE3CDF7DEFBEE77DEF7AC63CE735
:102A7000FFFFFFFFFFFFFFFFFFFFFFFFBEEF7DEF49
:102A80007EE7FBD6F8B5B6ADFBD67DEF7EE738BE68
:102A90007DE7FFFFFFFFFFFFFFFFFFFFBEEF3DE70B
:102AA0007DE73CDF7AC638BEFBCE3DE77DE7BBD68F
:102AB00079BEFFFF79C6F49C7ABE39B63AB6F9B54D
:102AC000F9ADB8ADB8A53AC6FFFFFFFFFFF7F39C1D
:102AD0008E63317C779DF494727C349D7ACEFFFFB7
:102AE000FFFFFFFFFFFFFFFFFFFFFFFFFFFFFFFFF6
:102AF000FFFFFFFFFFFFFFFFFFFFFFFFFFFFFFFFE6
:102B0000FFFFFFFFFFFFFFFFFFFFFFFFFFFFFFFFD5
:102B1000FFFFFFFFFFFFFFFFFFFFFFFFFFFFFFFFC5
:102B2000FFFFFFFFFFFFFFFFFFFFFFFFFFFFFFFFB5
:102B3000FFFFFFFFFFFFFFFFFFFFBEE7751CB6149F
:102B40007514B614751CB6147514B614751CB61429
:102B50007514B614751CB6147514B614751CB61419
:102B60007514B614751CB6147514B614751CB61409
:102B70007514B614751CB6147514B614751CB614F9
:102B80007514B614751CB6143745FA757B9EBB9E3A
:102B90007B96F734751CB6147EDFFFFFFFFFFFFF47
:102BA000FFFFFFFFFFFFFFFFFFFFFFFFFFFFFFFF35
:102BB000FFFFFFFFFFFFFFFFFFFFFFFFFFFFFFFF25
:102BC000FFFFFFFFFFFFFFFFFFFFFFFFFFFFFFFF15
:102BD000FFFFFFFFFFFFFFFFFFFFFFFFFFFFFFFF05
:102BE0000D6B87318639C73186393084FFFFFFFF8F
:102BF000FFFFFFFFFFFFFFFFFFFFFFFFFFFFFFFFE5
:102C0000FFFF87318639C73186398731FFFFFFFFE4
:102C1000FFFFFFFFFFFFFFFF066B87318639C731DC
:102C2000863938C6FFFFC7318639873186394D6B03
:102C3000FFFFFFFFFFFFFFFFFFFFFFFFFFFFFFCFD4
:102C4000F304F304F304F304796EFFFFFFFFFACFFC
:102C5000F304F304F304F304F304F304F304F304BC
:102C6000F304F304F304F304F304F304F36CFFFF3D
:102C7000FFFFFFFFFFFFF334F304F304F304F30457
:102C8000F304BA9EFFFFFFFFFFFFFFFFFFFFFFFF01
:102C9000FFFFFFFFFFFFFFFFFFFFFFFFFFFFFFFF44
:102CA000FFFFFFFFFFFFFFFFFFFFFFFFFFFFFFFF34
:102CB000FFFFFFFFFFFF7EEF7DEF7EE7F8BD75A50D
:102CC000F7BDBACE38CEB2940D6BBBCE7DEFBBCE86
:102CD000BEF7FFFFFFFF79CE7DEF7EEFB7BD34A5D6
:102CE000F4A4F39430844D6B31847DE77EEF7AC693
:102CF000BEFFFFFFFFFFFFFFFFFF7EEF7EEF7EE7E0
:102D0000F8BD76ADF7BDB6B58F7BB3947EEF7EEFA1
:102D1000F8BDFFFFFFFFFFFFFFFF7EEF7EEF7EEFBF
:102D2000F8BDF49CF4A4F49CCF7B8E6BFCDE7EEFAC
:102D30003DE7BBCEFFFFF394F59C39B6F9BDF9B57D
:102D4000B8B5B8ADB8AD7ABEFFFFFFFFFFFFFFFF1C
:102D5000FFFFFBD638C63CDFFFFFFFFFFFFFFFFF93
:102D6000FFFFFFFFFFFFFFFFFFFFFFFFFFFFFFFF73
:102D7000FFFFFFFFFFFFFFFFFFFFFFFFFFFFFFFF63
:102D8000FFFFFFFFFFFFFFFFFFFFFFFFFFFFFFFF53
:102D9000FFFFFFFFFFFFFFFFFFFFFFFFFFFFFFFF43
:102DA000FFFFFFFFFFFFFFFFFFFFFFFFFFFFFFFF33
:102DB000FFFFFFFFFFFFFFFFFFFFBEE7B614751425
:102DC000B6147514B614B514B6147514B614751477
:102DD000B6147514B614B514B6147514B614751467
:102DE000B6147514B614B514B6147514B614751457
:102DF000B6147514B614B514B6147514B614751447
:102E0000B6147514B614B514FCA6FCBEB95DB62C88
:102E1000B6147514B614B514BFDFFFFFFFFFFFFF34
:102E2000FFFFFFFFFFFFFFFFFFFFFFFFFFFFFFFFB2
:102E3000FFFFFFFFFFFFFFFFFFFFFFFFFFFFFFFFA2
:102E4000FFFFFFFFFFFFFFFFFFFFFFFFFFFFFFFF92
:102E5000FFFFFFFFFFFFFFFFFFFFFFFFFFFFFFFF82
:102E6000F49C8639C7318639C7318639BACEFFFF1F
:102E7000FFFFFFFFFFFFFFFFFFFFFFFFFFFFFFFF62
:102E8000BACE8639C7318639C7318639FFFFFFFF91
:102E9000FFFFFFFFFFFFFFFFCD698639C73186398E
:102EA000C73179D6FFFF8639C7318639C7318639B0
:102EB000FFFFFFFFFFFFFFFFFFFFFFFFFFFFFFD74A
:102EC000F404F3043405F304BA6EFFFFFFFF7FD66A
:102ED000F404F3043405F304F404F3043335F30485
:102EE000F43430043004F33CF4043004BA66FFFFD9
:102EF000FFFFFFFFBA9EF304F404F3043305F30469
:102F0000F404F304BFCEFFFFFFFFFFFFFFFFFFFF4F
:102F1000FFFFFFFFFFFFFFFFFFFFFFFFFFFFFFFFC1
:102F2000FFFFFFFFFFFFFFFFFFFFFFFFFFFFFFFFB1
:102F3000FFFFFFFFBEEF3DE77EE73CE7BEF7FFFF89
:102F4000FFFFFFFFFFFFFFFFFFF7CF7B7DDF3DE7C9
:102F5000FCD6FFFFFFFF79CE7EE77DE7FFFFFFFF97
:102F6000FFFFFFFFFFFFFFFFBAD6D07B7DE73DE706
:102F7000BBCEFFFFFFFFFFFFBEEF3DE77DE77DEF2D
:102F8000FFFFFFFFFFFFFFFFFFFF34A53CD77DE7FB
:102F9000BBCE3DE7FFFFFFFFBEEF7DEF7EE73DE7E6
:102FA000BEF7FFFFFFFFFFFFFFFF7DF7307C7DE7F0
:102FB0007EE77AC6FFFFFFFF75A58F7377A5F8B58B
:102FC000F9ADB8ADB8A5F8B5FFFFFFFFFFFFFFFFF4
:102FD000FFFFFFFFFFFFFFFFFFFFFFFFFFFFFFFF01
:102FE000FFFFFFFFFFFFFFFFFFFFFFFFFFFFFFFFF1
:102FF000FFFFFFFFFFFFFFFFFFFFFFFFFFFFFFFFE1
:10300000FFFFFFFFFFFFFFFFFFFFFFFFFFFFFFFFD0
:10301000FFFFFFFFFFFFFFFFFFFFFFFFFFFFFFFFC0
:10302000FFFFFFFFFFFFFFFFFFFFFFFFFFFFFFFFB0
:10303000FFFFFFFFFFFFFFFFFFFFBEE7751CB6149A
:10304000751CB5147514B614751CB514751CB6141E
:10305000751CB5147514B614751CB514751CB6140E
:10306000751CB5147514B614751CB514751CB614FE
:10307000751CB5147514B614751CB514751CB614EE
:10308000751CB5147514B614751CB61C384D7B8EA2
:103090003DC7784D7514B6147EE7FFFFFFFFFFFFB5
:1030A000FFFFFFFFFFFFFFFFFFFFFFFFFFFFFFFF30
:1030B000FFFFFFFFFFFFFFFFFFFFFFFFFFFFFFFF20
:1030C000FFFFFFFFFFFFFFFFFFFFFFFFFFFFFFFF10
:1030D000FFFFFFFFFFFFFFFFFFFFFFFFFFFFFFFF00
:1030E00079D6C6318639C7318639C6310D6BFFFFB7
:1030F000FFFFFFFFFFFFFFFFFFFFFFFFFFFFFFFFE0
:10310000FFFF4D6B8639C7318639C63138C6FFFFA0
:10311000FFFFFFFFFFFFFFFF8639C6318639C7314A
:103120008639BAD6FFFFC7318639C63186394D6B2D
:10313000FFFFFFFFFFFFFFFFFFFFFFFFFFFFBACE15
:10314000F33CF304F304F304796EFFFFFFFFFFFF8A
:10315000F304F304F304F304F96CFAD77FD6FAFF0F
:10316000FFD7FFD7FFFFBFCEF9FFFFD7FFFFFFFF5E
:10317000FFFFFFD7F33CF304F304F304F304F30479
:10318000F304F304733EFFFFFFFFFFFFFFFFFFFFAA
:10319000FFFFFFFFFFFFFFFFFFFFFFFFFFFFFFFF3F
:1031A000FFFFFFFFFFFFFFFFFFFFFFFFFFFFFFFF2F
:1031B000FFFFFFFF3DE73DDF3DE7FFFFFFFFFFFFB5
:1031C000FFFFFFFFFFFFFFFFFFFFFBDE35A5B7ADF2
:1031D000F7B5FFFFFFFF79C63DE77DE7FFFFFFFF84
:1031E000FFFFFFFFFFFFFFFFFFFF38C6B8BD3DDF5A
:1031F0007ACEFFFFFFFFFFFF75ADF394B294FCDEC4
:10320000FFFFFFFFFFFFFFFFFFFF3CE7FCDE3DDFAF
:103210007ACE7DE7FFFFFFFFF7BDFBD63DE7BEF7A8
:10322000FFFFFFFFFFFFFFFFFFFFFFFFF8C57DE789
:103230003DE7BAC6BFFFFFFFFFFFFEF735AD8F6B5F
:10324000F59CF8ADB8ADB8A5F9BD39B63ABEFFFFEB
:10325000FFFFFFFFFFFFFFFFFFFFFFFFFFFFFFFF7E
:10326000FFFFFFFFFFFFFFFFFFFFFFFFFFFFFFFF6E
:10327000FFFFFFFFFFFFFFFFFFFFFFFFFFFFFFFF5E
:10328000FFFFFFFFFFFFFFFFFFFFFFFFFFFFFFFF4E
:10329000FFFFFFFFFFFFFFFFFFFFFFFFFFFFFFFF3E
:1032A000FFFFFFFFFFFFFFFFFFFFFFFFFFFFFFFF2E
:1032B000FFFFFFFFFFFFFFFFFFFFBEE7B614751420
:1032C000B614B514B6147514B614B514B614751432
:1032D000B614B514B6147514B614B514B614751422
:1032E000B614B514B6147514B614B514B614751412
:1032F000B614B514B6147514B614B514B614751402
:10330000B614B514B6147514B95DBB9EFCAEBB9E65
:10331000F965B624B6147514BEDFFFFFFFFFFFFF8B
:10332000FFFFFFFFFFFFFFFFFFFFFFFFFFFFFFFFAD
:10333000FFFFFFFFFFFFFFFFFFFFFFFFFFFFFFFF9D
:10334000FFFFFFFFFFFFFFFFFFFFFFFFFFFFFFFF8D
:10335000FFFFFFFFFFFFFFFFFFFFFFFFFFFFFFFF7D
:10336000FFFF3084C7318639C7318631C73186695E
:10337000BACEFFFFFFFFFFFFFFFFFFFFFFFFFFFFD3
:10338000FFFFF39CC7318639C73186314D6BFFFF94
:10339000FFFFFFFFFFFFF39CC7318631C73186393E
:1033A0004D63FFFFFFFF8639C7318631C7314D6B53
:1033B000BACEFFFFFFFFFFFFFFFFFFFFFFFFFFD7BB
:1033C0003305F3043405F3043335FFFFFFFFFFFF3C
:1033D000BA66F3043405F3043335FFD7FFFFFFFF6C
:1033E000FFFFFFFFFFFFFFFFFFFFFFFFFFFFFFFFED
:1033F000FFFFF3343405F3043305F334FA6CF304BC
:103400003305F3043405799EFFFFFFFFFFFFFFFF45
:10341000FFFFFFFFFFFFFFFFFFFFFFFFFFFFFFFFBC
:10342000FFFFFFFFFFFFFFFFFFFFFFFFFFFFFFFFAC
:10343000FFFF7DEF3DD73DDFBEEFFFFFFFFFFFFF4B
:10344000FFFFFFFFFFFFFFFFFFFFFFFFB6AD79CEDE
:10345000FFFFFFFFFFFF79C63DD73DDFFFFFFFFF07
:10346000FFFFFFFFFFFFFFFFFFFFFFFF359D3DDF7A
:10347000FCCEBEEFFFFFFFFFFFFFFFFFFFFFFFFFE1
:10348000FFFFFFFFFFFFBEFFFBD6BBCE3DDF3CDFF4
:10349000F8ADFFFFFFFFFFFFBACEB6B575A53CE75D
:1034A000FFFFFFFFFFFFFFFFFFFFFFFFFBCE3DDF43
:1034B0007DDF79BEFFFFFFFFFFFFFFFFFFFFFFFF85
:1034C00075A58E6BF58C77A5B89D779D779DBBCE46
:1034D000FFFFFFFFFFFFFFFFFFFFFFFFFFFFFFFFFC
:1034E000FFFFFFFFFFFFFFFFFFFFFFFFFFFFFFFFEC
:1034F000FFFFFFFFFFFFFFFFFFFFFFFFFFFFFFFFDC
:10350000FFFFFFFFFFFFFFFFFFFFFFFFFFFFFFFFCB
:10351000FFFFFFFFFFFFFFFFFFFFFFFFFFFFFFFFBB
:10352000FFFFFFFFFFFFFFFFFFFFFFFFFFFFFFFFAB
:10353000FFFFFFFFFFFFFFFFFFFFBEE7751CB61495
:103540007514B614751CB6147514B614751CB6141F
:103550007514B614751CB6147514B614751CB6140F
:103560007514B614751CB6147514B614751CB614FF
:103570007514B614751CB6147514B614751CB614EF
:103580007514B614751CB614784D373DF634F72C07
:10359000761CB614751CB6147EDFFFFFFFFFFFFF1D
:1035A000FFFFFFFFFFFFFFFFFFFFFFFFFFFFFFFF2B
:1035B000FFFFFFFFFFFFFFFFFFFFFFFFFFFFFFFF1B
:1035C000FFFFFFFFFFFFFFFFFFFFFFFFFFFFFFFF0B
:1035D000FFFFFFFFFFFFFFFFFFFFFFFFFFFFFFFFFB
:1035E000FFFFBACE0D6BC731863987318639C731B7
:1035F0008639476B136BF39CF39C30844D6BC7315A
:103600007AD6BACE8639C731863987318639F39C66
:10361000FFFFFFFF38C6C731863987318639C7318A
:10362000F39CFFFF79D6C7318639873186394D6BD8
:10363000FFFFFFFFFFFFFFFFFFFFFFFFFFFFFFFF9A
:10364000F304F304F304F304F304FA6C79A6BA9ECA
:103650007A9EF304F304F304F304F30479A6FFCF92
:103660007FFEFFFF79D6FFD7796EBFCEFFFFFFFF4A
:103670007A9EF304F304F304F304BA9EFFD73004F4
:10368000F304F304F304F334FFD7FFFFFFFFFFFF5E
:10369000FFFFFFFFFFFFFFFFFFFFFFFFFFFFFFFF3A
:1036A000FFFFFFFFFFFFFFFFFFFFFFFFFFFFFFFF2A
:1036B000FFFFBACEB8ADF9ADBEF7FFFFFFFFFFFFCA
:1036C000FFFFFFFFFFFFFFFFFFFFFFFFFFFFFFFF0A
:1036D000FFFFFFFFFFFF38BE3ABE7BC6FFFFFFFFC5
:1036E000FFFFFFFFFFFFFFFFFFFFFFFFB6B57BC63A
:1036F0007AC63DE7FFFFFFFFFFFFFFFFFFFFFFFF72
:10370000FFFF79C6B8B5F8AD7BCEBBC638BEF49422
:103710007DEFFFFFFFFFFFFFFFFFFFFFFFFFFFFF4B
:10372000FFFFFFFFFFFFFFFFFFFFFBD6FCD63DD7EC
:103730007BCEBBD6FFFFFFFFFFFFFFFFFFFFFFFFBB
:10374000FFFFFFFF75B5CF739073779D379DB8A5C9
:10375000FFFFFFFFFFFFFFFFFFFFFFFFFFFFFFFF79
:10376000FFFFFFFFFFFFFFFFFFFFFFFFFFFFFFFF69
:10377000FFFFFFFFFFFFFFFFFFFFFFFFFFFFFFFF59
:10378000FFFFFFFFFFFFFFFFFFFFFFFFFFFFFFFF49
:10379000FFFFFFFFFFFFFFFFFFFFFFFFFFFFFFFF39
:1037A000FFFFFFFFFFFFFFFFFFFFFFFFFFFFFFFF29
:1037B000FFFFFFFFFFFFFFFFFFFFBEE7B61475141B
:1037C000B6147514B6147514B6147514B6147514AD
:1037D000B6147514B6147514B6147514B61475149D
:1037E000B6147514B6147514B6147514B61475148D
:1037F000B6147514B6147514B6147514B61475147D
:10380000B6147514B61475147B8EBBA6BC967B9E3D
:103810003DBF373DB6147514BFDFFFFFFFFFFFFF4D
:10382000FFFFFFFFFFFFFFFFFFFFFFFFFFFFFFFFA8
:10383000FFFFFFFFFFFFFFFFFFFFFFFFFFFFFFFF98
:10384000FFFFFFFFFFFFFFFFFFFFFFFFFFFFFFFF88
:10385000FFFFFFFFFFFFFFFFFFFFFFFFFFFFFFFF78
:10386000FFFFFFFFBACE8639C7318639C7318639A7
:10387000C7318639C7318639C7318639C73186396C
:10388000F49CFFFF339D8639C7318639C7318639AD
:10389000C7318639C7318639C7318639C7314C6B54
:1038A000FFFFFFFFFFFF8639C7318639C7318639F1
:1038B000FFFFFFFFFFFFFFFFFFFFFFFFFFFFFFFF18
:1038C000FA34F3043305F304F404F3043405F30485
:1038D000FFFFF93C3305F304F404F3043405F30467
:1038E000F404F30433053004F404796EFFFFFFD7CA
:1038F000F404F3043305F304F434FFFFFFFFF96C21
:10390000F404F3043305F304B46EFFFFFFFFFFFF7D
:10391000FFFFFFFFFFFFFFFFFFFFFFFFFFFFFFFFB7
:10392000FFFFFFFFFFFFFFFFFFFFFFFFFFFFFFFFA7
:10393000FFFFF8BD779D77A5FFFFFFFFFFFFFFFFAC
:10394000FFFFFBDE3595359D77A5B7ADB7A5B7ADC4
:1039500039AEFFFFFFFFB7B5779DB8ADFFFFFFFFA3
:10396000FFFFFFFFFFFFFFFFFFFFFFFFF7B5779DA3
:10397000779D3CE7FFFFFFFFFFFFFFFFFFFFFFFF1C
:10398000FFFF359D3695F48C3695779D7795359567
:103990007ABEFFFFFFFFFFFFFFFFFFFFFFFFFFFFFD
:1039A000FFFFFFFFFFFFBEF7F8AD77A5B8A576A52F
:1039B000F8ADFFFFFFFFFFFFFFFFFFFFFFFFFFFF70
:1039C000FFFFFFFFFFFFFFFFFBDE4D637795369D97
:1039D0007ABEFFFFFFFFFFFFFFFFFFFFFFFFFFFFBD
:1039E000FFFFFFFFFFFFFFFFFFFFFFFFFFFFFFFFE7
:1039F000FFFFFFFFFFFFFFFFFFFFFFFFFFFFFFFFD7
:103A0000FFFFFFFFFFFFFFFFFFFFFFFFFFFFFFFFC6
:103A1000FFFFFFFFFFFFFFFFFFFFFFFFFFFFFFFFB6
:103A2000FFFFFFFFFFFFFFFFFFFFFFFFFFFFFFFFA6
:103A3000FFFFFFFFFFFFFFFFFFFFBEE77514B61498
:103A4000751CB514751CB614751CB5147514B61414
:103A5000751CB514751CB614751CB5147514B61404
:103A6000751CB514751CB614751CB5147514B614F4
:103A7000751CB514751CB614751CB5147514B614E4
:103A8000751CB514751CB6147BA6B5147514B61444
:103A9000F73C3A7E751CB6147EE7FFFFFFFFFFFF81
:103AA000FFFFFFFFFFFFFFFFFFFFFFFFFFFFFFFF26
:103AB000FFFFFFFFFFFFFFFFFFFFFFFFFFFFFFFF16
:103AC000FFFFFFFFFFFFFFFFFFFFFFFFFFFFFFFF06
:103AD000FFFFFFFFFFFFFFFFFFFFFFFFFFFFFFFFF6
:103AE000FFFFFFFFFFFFBACE4D6BC6318639C731EE
:103AF0008639C6318639C7318639C6318639C731EC
:103B0000308CFFFFFFFF30848639C6318639C731DC
:103B10008639C6318639C7318639C6310D6BBAFE52
:103B2000FFFFFFFF7AD6C7318639C63186394D6B24
:103B3000FFFFFFFFFFFFFFFFFFFFFFFFFFFFFFFF95
:103B400079A6F304F304F304F304F304F304F33465
:103B5000FFD7FFFFF33CF304F304F304F304F3048F
:103B6000F30CF304F304F304F304F36CFFFFF334F6
:103B7000F30CF304F304F30479A6FFFFFFFFFFCF78
:103B8000F30CF304F304F304F304BA9EFFFFFFFF06
:103B9000FFFFFFFFFFFFFFFFFFFFFFFFFFFFFFFF35
:103BA000FFFFFFFFFFFFFFFFFFFFFFFFFFFFFFFF25
:103BB000FFFFF7B5B8ADB9ADBFFFFFFFFFFFFFFFD8
:103BC000FFFF38BEB8ADB8A5B8ADB8ADB8ADB8A5B3
:103BD000B8ADFFFFFFFFF8B5B8ADF9B5FFFFFFFFC8
:103BE000FFFFFFFFFFFFFFFFFFFFFFFFF8BDB8A5CF
:103BF00078AD3DE7FFFFFFFFFFFFFFFFFFFFFFFF88
:103C0000FFFFB294F39CF3948E7B0C5B37A5B8A5B1
:103C100077A579BEFFFFFFFFFFFFFFFFFFFFFFFF5D
:103C2000FFFFFFFFBBDE77A577A5B7A5B48C76A510
:103C3000FFFFFFFFFFFFFFFFFFFFFFFFFFFFFFFF94
:103C4000FFFFFFFFFFFFFFFFFFFF7DEF4E6BF58CD8
:103C5000379DFCD6FFFFFFFFFFFFFFFFFFFFFFFFCA
:103C6000FFFFFFFFFFFFFFFFFFFFFFFFFFFFFFFF64
:103C7000FFFFFFFFFFFFFFFFFFFFFFFFFFFFFFFF54
:103C8000FFFFFFFFFFFFFFFFFFFFFFFFFFFFFFFF44
:103C9000FFFFFFFFFFFFFFFFFFFFFFFFFFFFFFFF34
:103CA000FFFFFFFFFFFFFFFFFFFFFFFFFFFFFFFF24
:103CB000FFFFFFFFFFFFFFFFFFFFBEE7B614751416
:103CC000B614B514B6147514B614B514B614751428
:103CD000B614B514B6147514B614B514B614751418
:103CE000B614B514B6147514B614B514B614751408
:103CF000B614B514B6147514B614B514B6147514F8
:103D0000B614B514B61475147B8EBBA6BC9EBB9EB0
:103D10003DBF373DB6147514BEDFFFFFFFFFFFFF49
:103D2000FFFFFFFFFFFFFFFFFFFFFFFFFFFFFFFFA3
:103D3000FFFFFFFFFFFFFFFFFFFFFFFFFFFFFFFF93
:103D4000FFFFFFFFFFFFFFFFFFFFFFFFFFFFFFFF83
:103D5000FFFFFFFFFFFFFFFFFFFFFFFFFFFFFFFF73
:103D6000FFFFFFFFFFFFFFFFFFFFF39C4D6B863957
:103D7000C7310630C7318639C7318631C7318639F8
:103D80003084FFFFFFFFFFFF339D8C69C731863909
:103D9000C7318631C7318639C731F39CFFFFFFFF3A
:103DA000FFFFFFFFFFFF8639C7318631C7314D6BFB
:103DB000FFFFFFFFFFFFFFFFFFFFFFFFFFFFFFFF13
:103DC000FFFFB99E3004F3043305F3043405F30414
:103DD000FFFFFFFFFFFF799E3305F3043405F30473
:103DE0003305F304F404F3043335B96EBA9EF304D7
:103DF0003305F304F404F33CFFFFFFFFFFFFFFFF75
:103E0000BA9EF304F404F3043004F304FFCFFFFF7D
:103E1000FFFFFFFFFFFFFFFFFFFFFFFFFFFFFFFFB2
:103E2000FFFFFFFFFFFFFFFFFFFFFFFFFFFFFFFFA2
:103E3000FFFFF7B5FAADF9B5BEEFFFFFFFFFFFFFDC
:103E4000FFFF75ADCD520D5B4E5B4E63F58CF9B542
:103E5000F9ADFFFFFFFFF8BDF9AD3ABEFFFFFFFF71
:103E6000FFFFFFFFFFFFFFFFFFFFFFFF39BEF9ADC1
:103E7000F9A57DEFFFFFFFFFFFFFFFFFFFFFFFFF44
:103E8000FFFFFFFFFFFFFFFFFFFF7CEF8F6BB9AD71
:103E9000F9ADB8ADBFEFFFFFFFFFFFFFFFFFFFFF73
:103EA000BEEF39BEF9ADB8AD779DD0737ACEFFFFC6
:103EB000FFFFFFFFFFFFFFFFFFFFFFFFFFFFFFFF12
:103EC000FFFFFFFFFFFFFFFFFFFFFFFFFFFFCF7BB6
:103ED000737C779DBCCEFCDEBFEFFFFFFFFFFFFFD3
:103EE000FFFFFFFFFFFFFFFFFFFFFFFFFFFFFFFFE2
:103EF000FFFFFFFFFFFFFFFFFFFFFFFFFFFFFFFFD2
:103F0000FFFFFFFFFFFFFFFFFFFFFFFFFFFFFFFFC1
:103F1000FFFFFFFFFFFFFFFFFFFFFFFFFFFFFFFFB1
:103F2000FFFFFFFFFFFFFFFFFFFFFFFFFFFFFFFFA1
:103F3000FFFFFFFFFFFFFFFFFFFFBEE7751CB6148B
:103F40007514B614751CB6147514B614751CB61415
:103F50007514B614751CB6147514B614751CB61405
:103F60007514B614751CB6147514B614751CB614F5
:103F70007514B614751CB6147514B614751CB614E5
:103F80007514B614751CB6147514373DF634F72C39
:103F9000751CB614751CB6147EDFFFFFFFFFFFFF14
:103FA000FFFFFFFFFFFFFFFFFFFFFFFFFFFFFFFF21
:103FB000FFFFFFFFFFFFFFFFFFFFFFFFFFFFFFFF11
:103FC000FFFFFFFFFFFFFFFFFFFFFFFFFFFFFFFF01
:103FD000FFFFFFFFFFFFFFFFFFFFFFFFFFFFFFFFF1
:103FE000FFFFFFFFFFFFFFFFFFFFFFFFFFFFBACE57
:103FF00038C6F39C308430843084F39C38C6BACE03
:10400000FFFFFFFFFFFFFFFFFFFFFFFF79D6F39CDE
:1040100030843084F3A4BACEFFFFFFFFFFFFFFFF21
:10402000FFFFFFFFFFFFBACE79D6BACE79D6BACE60
:10403000FFFFFFFFFFFFFFFFFFFFFFFFFFFFFFFF90
:10404000FFFFFFFFFFD7BA9E796EBA9E79A6BA9E90
:10405000FFFFFFFFFFFFFFFFFFFFBACE79A6BA6E9B
:10406000799EBA6E79A6BFCEFFD7FFFF7FD6BACEB4
:10407000FFD7BFCE7FD6FFCFFFFFFFFFFFFFFFFFC2
:10408000FFFFBFCE7FD6BFCEFFD7BFCEFFFFFFFF64
:10409000FFFFFFFFFFFFFFFFFFFFFFFFFFFFFFFF30
:1040A000FFFFFFFFFFFFFFFFFFFFFFFFFFFFFFFF20
:1040B000FFFF38C6F9B53ABEFCDEFFFFFFFFFFFF8A
:1040C000FFFFFFFFFFFFFFFFFFFFFFFF36A53ABE29
:1040D000F9B5FFFFFFFFF8BD3ABE7BC6FFFFFFFF4C
:1040E000FFFFFFFFFFFFFFFFFFFFFFFFF9BD3AB636
:1040F000F8B5FFFFFFFFFFFFFFFFFFF7BEF7FFFF72
:10410000FFFFFFFFFFFFFFFFFFFFFFFFF7BDF9B559
:10411000FAB5F9AD3DE7FFFFFFFFFFFFFFFF7DE7CA
:104120003ABEFAB5F9B5327C728CBEF7FFFFFFFFDD
:10413000FFFFFFFFFFFFFFFFFFFFFFFFFFFFFFFF8F
